:10000000F5C000000C94E0090C94070A17C1000029
:1000100015C1000013C1000029C100000FC100007C
:100020000DC100000BC1000009C1000007C10000A4
:1000300005C1000003C1000001C10000FFC00000B5
:100040000C943A0AFBC00000D7C6000007C70000A6
:10005000F5C00000F3C00000F1C00000EFC00000D8
:10006000EDC00000EBC0000000000008000201002D
:100070000003040700000000000000000102040863
:100080001020408001020408102001020408102002
:10009000040404040404040402020202020203032E
:1000A00003030303000000002300260029000000D2
:1000B0000000250028002B0000000000240027007D
:1000C0002A00010402000302048A050506C30B206E
:1000D00019421E2C25802E902FAA302D3700380073
:1000E0003C8F3D106F2000005EBCE2613FDD83C2AB
:1000F0009C7E20A3FD1F419DC3217FFCA2401E5F6B
:1001000001E3BD3E6082DC237D9FC1421CFEA0E175
:10011000BF5D0380DE3C62BEE0025CDF81633D7C4C
:1001200022C09E1D43A1FF4618FAA427799BC584CF
:10013000DA3866E5BB5907DB856739BAE406581932
:1001400047A5FB7826C49A653BD987045AB8E6A729
:10015000F91B45C6987A24F8A6441A99C7257B3A14
:100160006486D85B05E7B98CD2306EEDB3510F4E83
:1001700010F2AC2F7193CD114FADF3702ECC92D302
:100180008D6F31B2EC0E50AFF1134DCE90722C6DDD
:1001900033D18F0C52B0EE326C8ED0530DEFB1F0E4
:1001A000AE4C1291CF2D73CA947628ABF51749083F
:1001B00056B4EA6937D58B5709EBB536688AD495BA
:1001C000CB2977F4AA4816E9B7550B88D6346A2BA1
:1001D0007597C94A14F6A8742AC896154BA9F7B69C
:1001E000E80A54D7896B3500A8055C0711241FBEA7
:1001F000CFEFD8E0DEBFCDBF12E0A0E0B1E0E8EF86
:10020000F0E302C005900D92AA35B107D9F723E0BB
:10021000AAE5B2E001C01D92AA3CB207E1F711E0E5
:10022000CCEED1E004C02297FE010E945716C83ED2
:10023000D107C9F70E942F0A0C947A18E1CE81E009
:1002400080935E028091630290916402A0916502A6
:10025000B09166020196A11DB11D80936302909337
:100260006402A0936502B093660208951F920F92F4
:100270000FB60F9211242F933F934F935F936F9379
:100280007F938F939F93AF93BF93EF93FF930E94BE
:10029000970CFF91EF91BF91AF919F918F917F91BB
:1002A0006F915F914F913F912F910F900FBE0F90E3
:1002B0001F901895BF92CF92DF92EF92FF920F930B
:1002C0001F93CF93DF932AE7E22EF12CF701B08042
:1002D0000BE710E0F801C080CCE7D0E0D8800E94A6
:1002E000450CF701B082F801C082D882DF91CF912E
:1002F0001F910F91FF90EF90DF90CF90BF900895E6
:100300008F929F92AF92BF92CF92DF92EF92FF9225
:100310000F931F93CF93DF9361E089E00E94760BE8
:1003200061E089E00E94AF0B62E087E00E94760BFB
:1003300062E088E00E94760B87E00E94E40B01E017
:10034000892B09F400E088E00E94E40B11E0892B7E
:1003500009F410E0011109C0809106019091070194
:10036000112309F4CFC1019607C0111109C0809172
:100370000601909107010296909307018093060170
:1003800020E436E042ED61E0809106010E949D0C80
:10039000CAE0D0E0D0938A02C09389024CE069E8B9
:1003A00072E080E00E94020D64E670E080E090E080
:1003B0000E94B30A219770F782E00E941E0D1092EE
:1003C0008A021092890280E00E943C0D809108010F
:1003D000882309F458C026E040E855E260E070E068
:1003E0008AEC92E0A7D4602F70E04AE050E08AECFB
:1003F00092E093D6612F70E04AE050E08AEC92E000
:1004000093D66EE071E08AEC92E0E2D564E271E0AE
:100410008AEC92E0D2D522E030E040E050E060E4A7
:1004200070E48AEC92E089D768E371E08AEC92E0AC
:10043000CFD567E471E08AEC92E0BFD56091060108
:10044000709107014AE050E08AEC92E066D66EE4D3
:1004500071E08AEC92E0B1D566E571E08AEC92E059
:10046000ACD56DE571E08AEC92E0A7D54AE050E0AA
:1004700062ED70E08AEC92E057D664E670E080E0CE
:1004800090E00E94B30A61E086E00E94760B61E092
:1004900085E00E94760B60E081E00E94760B60E0D0
:1004A00086E00E94AF0B62E083E00E94760B80B78B
:1004B000806880BF80910801811105C0809164002F
:1004C00082608093640080916400806880936400FF
:1004D00080916400886080936400809164008460EF
:1004E0008093640061E086E00E94AF0B80ED97E0AE
:1004F000E1DE88EB92E00E940F1460E088EB92E06E
:100500000E94B4156B017C0140E060E088EB92E052
:100510000E945D154B015C0160E086E00E94AF0B1C
:10052000A5019401C501B4010E947618811109C08A
:10053000A7019601C701B6010E947618882309F425
:100540005EC08CED95E00E94450C60E088EB92E087
:100550000E94B4156B017C0140E060E088EB92E002
:100560000E945D159B01AC010E947618811108C0A4
:10057000A7019601C701B6010E947618882359F099
:1005800080910801882329F068E671E08AEC92E006
:100590001FD51092B70261E085E00E94AF0B62E3C5
:1005A00070E080E090E0DFD786E992E00E948F1251
:1005B00060E086E992E00E94E61286E992E00E94FD
:1005C000351190E09093880280938702C0E06C2FF1
:1005D00070E0809187029091880268177907E4F4AF
:1005E00033E0660F771F3A95E1F769597D4F41E097
:1005F00089EA92E00E948110811182C00DC081E0E1
:100600008093B70280910801882329F261E771E0A5
:100610008AEC92E0DDD4BFCF60E085E00E94AF0BB2
:10062000809187029091880220910801892B51F4D2
:10063000222329F060E871E08AEC92E0C9D410929C
:10064000950221C081E0809395022223E1F06BE8BE
:1006500071E08AEC92E0B1D46091870270918802D7
:100660004AE050E08AEC92E058D562E871E08AEC0A
:1006700092E0AED48091B702882329F065E971E059
:100680008AEC92E0A5D480910801882329F068ECD7
:1006900070E080E090E067D760E089E00E94AF0BF7
:1006A0001092910210929202109293021092940270
:1006B0001092630210926402109265021092660218
:1006C00080ED92E0A0E0B0E080935F029093600242
:1006D000A0936102B093620210925E0243E050E088
:1006E0006FE171E081E0DF91CF911F910F91FF9059
:1006F000EF90DF90CF90BF90AF909F908F902EC6DD
:10070000CF5F65CF039638CECF92DF92EF92FF9204
:10071000CF93DF9380915E02882331F082E390E0F3
:100720000E94450C10925E0280E590E00E94450C0C
:10073000813099F480915F0290916002A0916102F2
:10074000B09162020196A11DB11D80935F0290934A
:100750006002A0936102B093620280915F02909167
:100760006002A0916102B0916202823B9240A105B9
:10077000B10570F48091630290916402A0916502CA
:10078000B091660284369105A105B10508F4D9C17E
:10079000F8948091630290916402A0916502B091F7
:1007A0006602AA27BB274091910250919202609164
:1007B000930270919402840F951FA61FB71F809318
:1007C000910290939202A0939302B093940210929C
:1007D000630210926402109265021092660278948D
:1007E00080919502882309F454C061E085E0B7D771
:1007F00082E390E05FDDC7E6D2E0E12CF12C80914E
:10080000870290918802E816F9065CF44BE0BE017D
:1008100086E992E00E941C128FEFE81AF80A2896E7
:10082000EECF86E992E00E94651387E791E042DD12
:1008300067E672E086E992E00E94EC136B017C01AE
:1008400060E085E08CD720E030E04AEF52E4C70159
:10085000B6010E94C01687FF1CC020E030E040E2D5
:1008600052ECC701B6010E940F18181694F480913B
:10087000B70220E030E040E251E4811157C1C701E6
:10088000B6010E9413180E942C1770938A0260937D
:1008900089028091B702882309F442C061E086E0B2
:1008A0005ED780ED97E006DD60E088EB92E00E9485
:1008B000B41520E030E040E251E40E9413180E9499
:1008C0002C1770938E0260938D0240E060E088EBFD
:1008D00092E00E945D156B017C0120E030E04AEA65
:1008E00052E40E94C01687FF18C020E030E040E2CA
:1008F00052ECC701B6010E940F18181674F420E0DC
:1009000030E040E251E4C701B6010E9413180E9492
:100910002C1770938A026093890260E086E01FD7EB
:1009200081E09ED6BC01882777FD8095982F0E9494
:100930005F1727E031E244E05DE30E9413180E9454
:100940002C177093900260938F0280910801882386
:1009500009F4C8C080919502882309F440C067EC6F
:1009600071E08AEC92E029D38091B7028823B9F034
:1009700060918B0270918C02882777FD8095982F6B
:100980000E945F1720E030E040E251E40E94C4166C
:10099000AB01BC0122E030E08AEC92E0CDD4809142
:1009A000B702811117C06091890270918A0288276D
:1009B00077FD8095982F0E945F1720E030E040E29D
:1009C00051E40E94C416AB01BC0122E030E08AEC85
:1009D00092E0B2D46DED71E08AEC92E0EED28091BB
:1009E000B702882309F43DC061EE71E08AEC92E021
:1009F000E4D26091890270918A02882777FD809500
:100A0000982F0E945F1720E030E040E251E40E94FE
:100A1000C416AB01BC0122E030E08AEC92E08CD439
:100A200065EF71E08AEC92E0C8D260918D0270911E
:100A30008E02882777FD8095982F0E945F1720E00F
:100A400030E040E251E40E94C416AB01BC0122E058
:100A500030E08AEC92E070D469E072E08AEC92E0D7
:100A6000ACD26DE072E08AEC92E0A7D260918F0286
:100A700070919002882777FD8095982F0E945F17CC
:100A800020E030E040E251E40E94C416AB01BC011A
:100A900022E030E08AEC92E04FD46FE172E08AEC21
:100AA00092E08BD240919102509192026091930218
:100AB000709194022AE030E08AEC92E04BD365E436
:100AC00072E08AEC92E084D21FD560935A02709350
:100AD0005B0280935C0290935D0264E670E080E0CC
:100AE00090E041D5809164008B7F809364008FEF0C
:100AF000C3D784E690E0DEDB4CE069E872E080E09A
:100B000081D782E09BD780E0B7D784E690E0D2DB44
:100B10008091640084608093640010925F02109260
:100B2000600210926102109262020BC0C701B6010E
:100B30000E9413180E942C1770938C0260938B02F2
:100B4000A8CEDF91CF91FF90EF90DF90CF900895E6
:100B500026E046E162E188EB92E00E94EE1363E159
:100B600089EA92E00E94601069EA72E086E992E008
:100B70000C942611FC01818D228D90E0805C9F4FAA
:100B8000821B91098F7399270895FC01918D828DA5
:100B9000981731F0828DE80FF11D858D90E0089552
:100BA0008FEF9FEF0895FC01918D828D981761F072
:100BB000828DDF01A80FB11D5D968C91928D9F5F94
:100BC0009F73928F90E008958FEF9FEF089583E5D4
:100BD00097E0892B41F080E090E0892B21F063D1F0
:100BE00081110C9400000895FC01848DDF01A80F91
:100BF000B11DA35ABF4F2C91848D90E001968F7345
:100C00009927848FA689B7892C93A089B1898C9163
:100C100080648C93938D848D981306C00288F38929
:100C2000E02D80818F7D80830895CF93DF93EC0149
:100C3000888D8823C1F0EA89FB89808185FD05C004
:100C4000A889B9898C9186FD0EC00FB607FCF5CF37
:100C5000808185FFF2CFA889B9898C9185FFEDCF7E
:100C6000CE01C2DFE8CFDF91CF910895CF92DF921E
:100C7000FF920F931F93CF93DF931F92CDB7DEB7F1
:100C80006C0181E0D60158968C9358975B969C91A5
:100C90005B975C968C915C97981307C05096ED918A
:100CA000FC915197808185FD2DC0F601038D10E0E8
:100CB0000F5F1F4F0F731127F02EF601848DF8126E
:100CC00010C00FB607FCF9CFD6015096ED91FC91FC
:100CD0005197808185FFF1CFC601698385DF6981E6
:100CE000ECCF838DE80FF11DE35AFF4F6083D601EF
:100CF0005B960C935B975296ED91FC915397808194
:100D000080620CC0D6015696ED91FC915797608396
:100D10005096ED91FC91519780818064808381E0B1
:100D200090E00F90DF91CF911F910F91FF90DF9096
:100D3000CF900895BF92CF92DF92EF92FF92CF9320
:100D4000DF93EC016A017B01B22EE889F98982E028
:100D50008083411581EE580761057105A1F060E0BF
:100D600079E08DE390E0A70196010E941A162150C8
:100D70003109410951095695479537952795211510
:100D800080E1380798F0E889F989108260E874E812
:100D90008EE190E0A70196010E941A1621503109B8
:100DA000410951095695479537952795EC85FD855D
:100DB0003083EE85FF852083188EEC89FD89B08213
:100DC000EA89FB89808180618083EA89FB8980814F
:100DD00088608083EA89FB89808180688083EA89D2
:100DE000FB8980818F7D8083DF91CF91FF90EF9091
:100DF000DF90CF90BF9008951F920F920FB60F9281
:100E000011242F938F939F93EF93FF93E091DA0236
:100E1000F091DB028081E091E002F091E10282FD3D
:100E200012C090818091E3028F5F8F732091E40262
:100E3000821751F0E091E302F0E0E653FD4F958F09
:100E40008093E30201C08081FF91EF919F918F9188
:100E50002F910F900FBE0F901F9018951F920F9219
:100E60000FB60F9211242F933F934F935F936F937D
:100E70007F938F939F93AF93BF93EF93FF938AECEE
:100E800092E0B2DEFF91EF91BF91AF919F918F9170
:100E90007F916F915F914F913F912F910F900FBE76
:100EA0000F901F9018958AEC92E064DE21E0892B68
:100EB00009F420E0822F08951092CD021092CC0206
:100EC00088EE93E0A0E0B0E08093CE029093CF0252
:100ED000A093D002B093D10284E392E09093CB022E
:100EE0008093CA0285EC90E09093D7028093D6025B
:100EF00084EC90E09093D9028093D80280EC90E04B
:100F00009093DB028093DA0281EC90E09093DD0213
:100F10008093DC0282EC90E09093DF028093DE020B
:100F200086EC90E09093E1028093E0021092E3025D
:100F30001092E4021092E5021092E6020895CF9218
:100F4000DF92EF92FF920F931F93CF93DF937C0179
:100F50006A01EB0100E010E00C151D0571F06991CC
:100F6000D701ED91FC910190F081E02DC701099529
:100F7000892B19F00F5F1F4FEFCFC801DF91CF9181
:100F80001F910F91FF90EF90DF90CF900895611522
:100F9000710581F0DB010D900020E9F7AD014150B2
:100FA0005109461B570BDC01ED91FC910280F38146
:100FB000E02D099480E090E00895E9CFDC01ED9107
:100FC000FC910190F081E02D099460E472E0DFCFA4
:100FD0000F931F93CF93DF93EC01D9DF8C01CE01E8
:100FE000F4DF800F911FDF91CF911F910F91089532
:100FF0008F929F92AF92BF92DF92EF92FF920F93E8
:101000001F93CF93DF93CDB7DEB7A1970FB6F894B8
:10101000DEBF0FBECDBF7C01F42FD52ECB0119A2B0
:10102000223008F42AE08E010F5D1F4F822E912C92
:10103000A12CB12C6F2F7D2DA50194010E941A16B1
:10104000F22FD32ECA01015011096A3014F4E0E3E3
:1010500001C0E7E3E60FD801EC93232B242B252BCB
:1010600049F7B801C70193DFA1960FB6F894DEBF28
:101070000FBECDBFDF91CF911F910F91FF90EF90E9
:10108000DF90BF90AF909F908F900895CF92DF92A6
:10109000EF92FF920F931F93CF93DF93EC016A01BE
:1010A0007B012115310579F4E881F9810190F08106
:1010B000E02D642FDF91CF911F910F91FF90EF9062
:1010C000DF90CF9009942A303105D9F477FF18C00A
:1010D0006DE274DF8C0144275527BA014C195D0974
:1010E0006E097F092AE0CE0183DF800F911FDF9117
:1010F000CF911F910F91FF90EF90DF90CF900895C7
:101100002AE0B701A601CE01DF91CF911F910F9187
:10111000FF90EF90DF90CF906BCF9A01AB016627E5
:1011200057FD6095762FB2CF0F931F93CF93DF9328
:10113000EC019A01AB01662757FD6095762FA6DF7B
:101140008C01CE0142DF800F911FDF91CF911F9163
:101150000F9108952115310541F4DC01ED91FC91C9
:101160000190F081E02D642F099442CF4F925F925D
:101170006F927F928F929F92AF92BF92CF92DF92A7
:10118000EF92FF920F931F93CF93DF93EC016A01CD
:101190007B01B22E9A01AB01C701B6010E947618FD
:1011A000882319F063E472E027C026013701E89430
:1011B00077F82FEF3FEF4FE75FE7C301B2010E94DF
:1011C000761881110DC02FEF3FEF4FE75FE7C301A6
:1011D000B2010E94C01618161CF467E472E00CC03D
:1011E0002FEF3FEF4FE75FE4C701B6010E940F18F2
:1011F0001816A4F46BE472E0CE01DF91CF911F9139
:101200000F91FF90EF90DF90CF90BF90AF909F90A5
:101210008F907F906F905F904F90B9CE2FEF3FEF00
:101220004FE75FECC701B6010E94C01687FDE2CF11
:1012300020E030E0A901C701B6010E94C01687FF77
:1012400009C06DE2CE01BADE8C01F7FAF094F7F82E
:10125000F09402C000E010E0A12C60E070E080E0BB
:101260009FE3AB1441F020E030E040E251E40E9403
:10127000C416A394F6CF9B01AC01C701B6010E942E
:101280005C166B017C010E9431172B013C010E940E
:101290005D179B01AC01C701B6010E945B166B0193
:1012A0007C012AE0B301A201CE01A2DE080F191FC2
:1012B000BB2031F06FE472E0CE0169DE080F191F28
:1012C0007B2C772039F120E030E040E251E4C70187
:1012D000B6010E9413186B017C010E942C174B0170
:1012E000AA2497FCA094BA2C2AE030E0B501A4010E
:1012F000CE01CCDE080F191FC501B4010E945F1793
:101300009B01AC01C701B6010E945B166B017C0119
:101310007A94D7CFC801DF91CF911F910F91FF90A1
:10132000EF90DF90CF90BF90AF909F908F907F9085
:101330006F905F904F90089519CF0F931F93CF93A5
:10134000DF93EC0113DF8C01CE013FDE800F911F94
:10135000DF91CF911F910F91089508958230E8F4A5
:10136000E82FF0E0EE0FFF1FE75FFE4F7183608311
:10137000813041F0809169008C7F842B80936900DB
:10138000E89A089580916900440F551F440F551F36
:10139000837F842B80936900E99A0895823078F4E2
:1013A000813011F0E89801C0E998E82FF0E0EE0FE5
:1013B000FF1FE75FFE4F8DEA99E0918380830895D8
:1013C0001F920F920FB60F9211242F933F934F93BA
:1013D0005F936F937F938F939F93AF93BF93EF939D
:1013E000FF93E0910901F0910A010995FF91EF91B6
:1013F000BF91AF919F918F917F916F915F914F912D
:101400003F912F910F900FBE0F901F9018951F9234
:101410000F920FB60F9211242F933F934F935F9328
:101420006F937F938F939F93AF93BF93EF93FF93AC
:10143000E0910B01F0910C010995FF91EF91BF91A3
:10144000AF919F918F917F916F915F914F913F915C
:101450002F910F900FBE0F901F9018950895C5D033
:10146000FDDF0E948001C7EED5E04ED92097E9F359
:10147000AEDBFBCF1F920F920FB60F9211242F936A
:101480003F938F939F93AF93BF9380916803909105
:101490006903A0916A03B0916B033091670323E065
:1014A000230F2D3720F40196A11DB11D05C026E89C
:1014B000230F0296A11DB11D20936703809368033B
:1014C00090936903A0936A03B0936B0380916C03BC
:1014D00090916D03A0916E03B0916F030196A11DD1
:1014E000B11D80936C0390936D03A0936E03B09332
:1014F0006F03BF91AF919F918F913F912F910F906B
:101500000FBE0F901F9018952FB7F8946091680345
:101510007091690380916A0390916B032FBF0895C6
:101520003FB7F89480916C0390916D03A0916E0386
:10153000B0916F0326B5A89B05C02F3F19F0019607
:10154000A11DB11D3FBF6627782F892F9A2F620FEB
:10155000711D811D911D42E0660F771F881F991F25
:101560004A95D1F708958F929F92AF92BF92CF92F2
:10157000DF92EF92FF926B017C01D2DF4B015C01A5
:10158000C114D104E104F104E1F046D1C9DF6819C6
:1015900079098A099B09683E73408105910580F3AA
:1015A00021E0C21AD108E108F10888EE880E83E034
:1015B000981EA11CB11CC114D104E104F10431F73F
:1015C000DFCFFF90EF90DF90CF90BF90AF909F90D4
:1015D0008F9008958230910538F0880F991F880FF9
:1015E000991F05970197F1F70895789484B5826063
:1015F00084BD84B5816084BD85B5826085BD85B5B7
:10160000816085BDEEE6F0E0808181608083E1E865
:10161000F0E010828081826080838081816080839D
:10162000E0E8F0E0808181608083E1EBF0E08081A0
:1016300084608083E0EBF0E0808181608083EAE772
:10164000F0E08081846080838081826080838081FB
:10165000816080838081806880831092C1000895BA
:101660008E3008F08E50877020910D0190E4299FF4
:1016700090011124822B80937C0080917A008064F9
:1016800080937A0080917A0086FDFCCF809178006B
:101690002091790090E0922B0895833081F028F416
:1016A000813099F08230A1F008958730A9F0883018
:1016B000B9F08430D1F4809180008F7D03C0809197
:1016C00080008F7780938000089584B58F7702C063
:1016D00084B58F7D84BD08958091B0008F7703C05D
:1016E0008091B0008F7D8093B0000895CF93DF93F9
:1016F00090E0FC01E458FF4F2491FC01E057FF4FBC
:101700008491882349F190E0880F991FFC01E854E7
:10171000FF4FA591B49182559F4FFC01C591D49183
:101720009FB7611108C0F8948C91209582238C9307
:10173000888182230AC0623051F4F8948C91322F50
:10174000309583238C938881822B888304C0F894FE
:101750008C91822B8C939FBFDF91CF9108950F9333
:101760001F93CF93DF931F92CDB7DEB7282F30E0C2
:10177000F901E859FF4F8491F901E458FF4F1491A2
:10178000F901E057FF4F04910023C1F0882319F0BD
:10179000698383DF6981E02FF0E0EE0FFF1FE255E0
:1017A000FF4FA591B4919FB7F8948C91611103C03C
:1017B0001095812301C0812B8C939FBF0F90DF91E7
:1017C000CF911F910F910895CF93DF93282F30E091
:1017D000F901E859FF4F8491F901E458FF4FD49182
:1017E000F901E057FF4FC491CC2389F0811155DFF7
:1017F000EC2FF0E0EE0FFF1FEC55FF4FA591B491D9
:101800002C912D2381E090E021F480E002C080E063
:1018100090E0DF91CF910895089583FF02C098E290
:10182000892787FD06C080649091600090937003C3
:1018300002C08091700394B7977F94BFF894909101
:1018400060009861909360008093600078940895A0
:10185000EAE7F0E0908180818F77808383B7817F92
:10186000846083BFF89483B7816083BF85B7806647
:1018700085BF85B78F79806485BF7894889583B755
:101880008E7F83BF90937A000895DF92EF92FF924C
:101890000F931F93CF93DF938C01EC0128E0E22E8E
:1018A000F12CC031D10520F19E01D12C203231051F
:1018B00038F0D39489E0D81619F036952795F6CFED
:1018C000109271038D2DA9DFC3DF8FEFA6DFC70153
:1018D00002C0880F991FDA94E2F7C81BD90B209138
:1018E0007103222319F0C81BD90BDBCF80E001C0A4
:1018F00081E0409168035091690360916A0370919F
:101900006B030C1B1D0B400F511F611D711D40937C
:1019100068035093690360936A0370936B03DF91CC
:10192000CF911F910F91FF90EF90DF9008958091DC
:1019300071038F5F809371030895CF92DF92EF92CE
:10194000FF921F93CF93DF93C82F162FD42FF90147
:10195000AFEFA60FA33028F4B0E0AF5ABD4FAC9163
:1019600001C0A0E0B0E020E836E948E950E00E947C
:101970004B166B017C01212F30E0A4ECB9E00E94F2
:101980003C16DF019B01AC010E944B16C60ED71E10
:10199000E81EF91EC701B601AFD0D093C5038C2F46
:1019A0008F718093C40364E170E080E090E0DBDD40
:1019B0008091C403882339F043E050E063ED7EE07A
:1019C00080E0CCDC02C080E0E9DCD4D0C0937203BC
:1019D0008C2FDF91CF911F91FF90EF90DF90CF90F0
:1019E000089583E793E016D19093BC038093BB03E3
:1019F0002091BB033091BC0381E02F3F3F4F09F49E
:101A000080E00895EF92FF921F93CF93DF931F9290
:101A1000CDB7DEB7182F7B0149838BD04981811167
:101A200004C04983DEDF4981F7CFB701812F0F90D2
:101A3000DF91CF911F91FF90EF9048C1CF93C82FB6
:101A400088D08823B9F0CC23D9F383B7817FC33002
:101A500021F0C23021F49CE003C094E001C090E08A
:101A6000892B83BF83B7816083BF889583B78E7FBF
:101A700083BFE6CFCF91089591E0811190E0892F47
:101A80006FC08627682F62956827062E6695669533
:101A90006025062E669560256770082E892F66954D
:101AA00007946795902D862706946795902586273D
:101AB0000895E8982A988EBD0DB407FEFDCF8EB527
:101AC0006EBD0DB407FEFDCF8EB52A9AE89A089533
:101AD00060E0EFCF88E2FCDF807519F080E0F8DF8E
:101AE000F9CF0895CF93C82F81E0F2DF682F637E8E
:101AF0006C2B81E8CF91DDCF22E0660F771F881F26
:101B0000991F2A95D1F729E03DE340E050E00E947B
:101B10001A1666E0220F331F441F551F6A95D1F72E
:101B20002093C6033093C7034093C8035093C9035F
:101B300008958091BF03853021F48091C0038823EC
:101B400011F080E0089584E08093BF03CBDF81E053
:101B500008959091BF0381E094300CF080E00895E7
:101B6000882311F080E001C084E0BCDF84E0809332
:101B7000BF030895CF93DF932A9A229A2A9A84B1B9
:101B80008C6284B980E58CBD8DB581608DBD6AEABB
:101B90008FEA8FDF8FE29CDF8A3AC9F765E58FEA2B
:101BA00088DF8FE295DF8535C9F7C2ECD0E0FE0112
:101BB0008491882331F03196649180687ADF22968F
:101BC000F6CF6091C50381EB74DF8091C6039091DD
:101BD000C703A091C803B091C903BD018827992705
:101BE00087E867DF8091C6039091C703A091C8037F
:101BF000B091C903692F7A2F8B2F992788E859DF75
:101C00006091C60389E855DF84E08093BF03DF91CC
:101C1000CF910895CF93DF93EC018091BF0384307F
:101C200019F08530F9F047C0109275031092C00387
:101C30006091C5038FEF9FEF24DF9093C3038093E0
:101C4000C203D093BE03C093BD0385E08093BF035E
:101C500041DF60E885EA2DDF80E144DF62E08EE964
:101C600028DF29C0809175032091C00390E004967D
:101C700030E08217930724F08091C0038834D8F0B5
:101C800084E08093BF032EDF809175038334B0F42A
:101C90008091C2039091C303892B81F480917403D6
:101CA00086FF0FC09091C4039F3159F08091740357
:101CB0008F71891731F08FEF9FEF05C081E090E0C1
:101CC00002C080E090E0DF91CF910895CF934093E0
:101CD0007503FB0120E030E050E02417350744F4A1
:101CE000D901AA58BC4F91919C932F5F3F4FF5CFDC
:101CF00086FD04C0807E9091C403890F8093740395
:101D00006091C5038FEF9FEFBCDE9093C303809378
:101D1000C203909175038EEF891B8093BF03DADEB7
:101D20008CE0E0DE60E085EAC4DE8091BF038330B2
:101D3000C4F588E2CDDE87FDF8CF8091BF0387FF31
:101D40001AC0909175038091BF03E091BD03F0919B
:101D5000BE03E90FF11DE80FF11D87FDFA95C38160
:101D60006C2F8091C2039091C3038BDE9093C303C9
:101D70008093C2030DC08091BF03882329F0813076
:101D800031F4C091C30304C0C091C20301C0CAEAC8
:101D90006C2F80E88EDE8091BF038F5F8093BF033E
:101DA000C4CFCF910895CF938091BF03853009F0C0
:101DB0004FC060E485EA7DDE84E28ADE8093C10361
:101DC0007894C8E488E284DE8075E1F38091C003F2
:101DD00081110FC0E091BD03F091BE038091C0035B
:101DE00091E0980F9093C0039091C503E80FF11D07
:101DF000908380E06DDEE091BD03F091BE03909191
:101E0000C00321E0290F2093C003E90FF11D808357
:101E1000682F8091C2039091C30333DE9093C30374
:101E20008093C20380917503833410F0C093C00384
:101E3000809175032091C00390E0049630E08217F2
:101E4000930794F08091C003883408F4BBCF0CC092
:101E500088E23EDE83FF08C084E08093BF0342DE59
:101E600060E885EACF9125CECF910895FF920F9338
:101E70001F93CF93DF93FC010081C181D281F8943D
:101E80008981F02EF0948F21898378941DE7115079
:101E900009F182E090E09EDB88818023C1F3F89411
:101EA0008A818F218A838981802B8983789480EE2F
:101EB00091E090DBF89489818F21898386E490E01A
:101EC00089DB8881802311E009F010E078948AE9A9
:101ED00091E080DB812FDF91CF911F910F91FF90D7
:101EE00008951F93CF93DF93FC011081C181D281AC
:101EF000912F909560FF11C0F8948A8189238A837D
:101F00008981812B89838AE090E064DB8A81812B3F
:101F10008A83789487E390E010C0F8948A818923BB
:101F20008A838981812B898381E490E053DB8A81D4
:101F3000812B8A83789485E090E0DF91CF911F9187
:101F400049CB0F931F93CF93DF93FC011081C18185
:101F5000D281F8948981812B89838A81012F009510
:101F600080238A8383E090E035DB89818023898325
:101F70008AE090E02FDBC881789485E390E02ADB4B
:101F80001C2381E009F480E0DF91CF911F910F9134
:101F90000895CF92DF92EF92FF920F931F93CF930A
:101FA000DF931F92CDB7DEB76C01E62E08E010E09C
:101FB000FF24F39461E09F2D9E2109F460E0C601A7
:101FC00049838FDFFF0C015011094981011511056B
:101FD00089F7411115C0F894D6011196ED91FC9145
:101FE000129791818C918095892381831196ED912F
:101FF000FC91129792818C918095892382837894A9
:102000000F90DF91CF911F910F91FF90EF90DF9094
:10201000CF900895EF92FF920F931F93CF93DF938A
:102020008C01C8E0D0E0F12CEE24E394C80189DFF4
:102030008111FE28EE0C2197C9F78F2DDF91CF91EA
:102040001F910F91FF90EF900895CF92DF92FF9232
:102050000F931F93CF93DF931F92CDB7DEB78C0101
:10206000F62E40E065E5798394DFCF2C7981D72E79
:1020700088E0F82EF60161916F0140E0C80189DF28
:10208000FA94C1F70F90DF91CF911F910F91FF90BC
:10209000DF90CF90089540E06CEC7BCFFC0113867D
:1020A0001586148627E030E0DF01A20FB31F1396D8
:1020B0001C922115310519F021503109F5CF0895F1
:1020C0001F93CF93DF93EC01162F60E0812F0EDB7F
:1020D000612F70E0FB01E458FF4FE491E883FB01BE
:1020E000E057FF4FE491F0E0EE0FFF1FEC55FF4F7C
:1020F000859194919A838983CE01DF91CF911F912D
:10210000CDCFAF92BF92CF92DF92EF92FF920F931B
:102110001F93CF93DF931F92CDB7DEB75C01D62E0E
:10212000E72EFC01858581115FC0C50149839EDED4
:102130004981811105C0F5011386158614866DC08D
:10214000442319F040E060EF02C040E06CEEC501AE
:1021500020DF01E0F12CC12C11E0C501F2DE682F77
:10216000C5016983EEDE6981613019F48130B9F40B
:1021700032C02F2D30E068131BC0F501838518177E
:1021800030F4E20FF31F8381802349F402C0181753
:1021900031F060E0193058F4F501148708C0F501FA
:1021A000EF0DF11D8381802B838361E009C0C12E77
:1021B000F501E20FF31F8381902F9095892383838C
:1021C000C5018FDE1F5F000F11F4F39401E0F7E00B
:1021D000FF1508F0C2CF113438F0F501C386C110E5
:1021E00009C081E0858706C0F5011386158614862F
:1021F00080E013C0F50183818823B1F3ED2DFE2D1E
:1022000080E090E0D501A80FB91F13962C9121937F
:10221000019688309105B1F781E00F90DF91CF9161
:102220001F910F91FF90EF90DF90CF90BF90AF90F4
:102230000895DC0180E0615038F0ED91E827F0E08E
:10224000E951FF4F8491F7CF08950895FC0185E28D
:1022500091E1928B818B768365831482108289E071
:10226000818381E0828383830895FC0184810895C2
:10227000CF93DF93EB0167E0CE01DBDF91E02F81AD
:10228000821390E0892FDF91CF910895CF92DF9252
:10229000EF92FF920F931F93CF93DF9300D0CDB7B0
:1022A000DEB76C01F42EE52EFC01858196816983F1
:1022B0007A83DCDD69817A818823F1F0F6018581FA
:1022C0009681C3DE40E06EEBF6018581968161DE8A
:1022D0000F2D1E2D89E0F82EF601858196819ADE5C
:1022E000F80181938F01FA94B9F7F60185819681FF
:1022F000BDDD91E0813009F090E0892F0F900F90C3
:10230000DF91CF911F910F91FF90EF90DF90CF90D1
:102310000895CF93DF93EA01B9DF882349F068E09D
:10232000CE0187DF91E02885821390E0892F01C0DC
:1023300080E0DF91CF910895EF92FF920F931F936A
:10234000CF93DF93EC018B017A018D819E818EDD2D
:10235000B8018D819E8179DE40E06EE48D819E81A1
:1023600018DE40E0F70162818D819E8112DE40E03F
:10237000F70163818D819E810CDEF80180818031BF
:1023800031F040E0F70164818D819E8102DE8D8114
:102390009E816CDDB8018D819E8157DEB8018D81F3
:1023A0009E8153DE488168E48D819E81F2DD64E187
:1023B00070E080E090E0D7D88881882329F06AE037
:1023C00070E080E090E0CFD88D819E81DF91CF9149
:1023D0001F910F91FF90EF9049CDEF92FF921F93C5
:1023E000CF93DF9300D0CDB7DEB77C01FC018581B0
:1023F000968169837A833ADD69817A81F7018581E3
:10240000968123DE40E064EBF70185819681C1DD92
:10241000F7018581968195DD182FF70185819681D9
:1024200025DD81E0111180E00F900F90DF91CF91B9
:102430001F91FF90EF900895EF92FF920F931F93DB
:10244000CF93DF93CDB7DEB72A970FB6F894DEBFF0
:102450000FBECDBF7C018B01242FAE014F5F5F4FBC
:102460002A8757DF2A858823C9F0F80180818031C7
:10247000B9F02B3041F02C3021F02A3031F48FE3C9
:1024800005C08FE703C08FE501C08FE18D83AE01EA
:102490004F5F5F4FB801C7014FDF02C080E001C04E
:1024A00081E02A960FB6F894DEBF0FBECDBFDF9154
:1024B000CF911F910F91FF90EF900895CF93DF93ED
:1024C000CDB7DEB729970FB6F894DEBF0FBECDBFEC
:1024D000FB0120812031C9F0AE014F5F5F4F19DF52
:1024E000882379F08D818F3351F020F48F3149F4B6
:1024F00089E00CC08F3539F08F3739F002C08AE09F
:1025000005C080E003C08BE001C08CE029960FB6C7
:10251000F894DEBF0FBECDBFDF91CF910895FF923B
:102520000F931F93CF93DF93CDB7DEB728970FB6E6
:10253000F894DEBF0FBECDBF8C01FC018581968172
:10254000ADDDF801148241E0BE016F5F7F4FF801FD
:1025500085819681D6DD882369F1BE016F5F7F4F4B
:10256000C80186DE882379F3F8018081811107C0D4
:10257000BE016F5F7F4FC80130DF811117C0F801C6
:10258000F180BE016F5F7F4FC80198DF8F1518F48F
:10259000F801818105C0BE016F5F7F4FC8018EDFEA
:1025A000F801818384818F5F8483CDCF81E0F8013E
:1025B0008083E5CF28960FB6F894DEBF0FBECDBF5F
:1025C000DF91CF911F910F91FF900895FC016283DD
:1025D0000895CF93DF93CDB7DEB729970FB6F89460
:1025E000DEBF0FBECDBFAE014F5F5F4F4FDE81E05C
:1025F0009981911101C080E029960FB6F894DEBF51
:102600000FBECDBFDF91CF9108958F929F92AF9271
:10261000BF92CF92DF92EF92FF920F931F93CF93CF
:10262000DF93EC018A016950633048F4E62FF0E053
:10263000EE0FFF1FEC5AFD4F8080918004C09EEE8C
:10264000892E92E0992E01151105F9F08B818823CE
:10265000E1F08881811119C00E94840A6B017C011C
:10266000AA2497FCA094BA2CB801CE01B2DF811144
:102670001FC00E94840A681979098A099B096C1590
:102680007D058E059F05A0F4EFCFB401882777FD67
:102690008095982FDF91CF911F910F91FF90EF9030
:1026A000DF90CF90BF90AF909F908F900C94B30A23
:1026B000DF91CF911F910F91FF90EF90DF90CF901E
:1026C000BF90AF909F908F900895CF93DF93EC01D0
:1026D0008D819E81CBDB8D819E81DDDC488164E430
:1026E0008D819E8156DC8A81882339F040E050E05C
:1026F0006981CE01DF91CF9188CFDF91CF9108958D
:10270000FA01208148E0249F90011124818190E00A
:10271000982F8827990F990F990F282B392BDB01B8
:102720008C918031B9F4678170E08681AB01481BE0
:102730005109CA019695982F88279795879567D252
:1027400060517109207F53E0220F331F5A95E1F742
:10275000260F371FC9010895EF92FF920F931F9321
:10276000CF93DF93CDB7DEB729970FB6F894DEBFCE
:102770000FBECDBF8C017B01AE014F5F5F4FC9DD46
:10278000882339F0AE014F5F5F4FB701C801B8DF52
:1027900002C080E894EE29960FB6F894DEBF0FBE13
:1027A000CDBFDF91CF911F910F91FF90EF900895D2
:1027B000813824EE92075CF0BC01882777FD809574
:1027C000982F7DD320E030E040E05CE32CC460E053
:1027D00070E08EEF92EC0895BFDFEACFDC01159632
:1027E0006C93159716964C93169770E0FB01E4587E
:1027F000FF4FE4911796EC931797FB01E057FF4FBB
:10280000649118966C93189740E85EE360E070E07E
:102810001D964D935D936D937C9350970895CF9340
:10282000DF93EC0162E08D810E94760B40E358EF6C
:102830006FEF7FEF49875A876B877C87DF91CF9156
:102840000895AF92BF92CF92DF92EF92FF920F93D3
:102850001F93CF93DF93EC01AF80662311F0BA2C66
:1028600001C0B12CA885B0E0AA0FBB1FAC55BF4F6B
:1028700040E050E0BA01FD0185919491FC01808116
:102880008A218B1112C08A019B010F5F1F4F2F4FAE
:102890003F4FCD84DE84EF84F8884C155D056E05CE
:1028A0007F0538F4B901A801E6CF342F252FCB01DD
:1028B00004C030E020E080E090E0632F722FDF91D1
:1028C000CF911F910F91FF90EF90DF90CF90BF902D
:1028D000AF900895CF92DF92EF92FF920F931F93E4
:1028E000CF93DF93CDB7DEB7C054D1400FB6F89485
:1028F000DEBF0FBECDBF8C01F62E0E94840AF11000
:1029000016C0F801C184D284E384F4849B01AC0135
:102910002C193D094E095F0969017A0130EDC31692
:1029200037E0D306E104F10410F48189B6C0F80160
:10293000618772878387948714821382128211823F
:10294000108261E085810E94AF0B6AEF70E080E049
:1029500090E00E94B30A61E0F80185810E94760B45
:1029600060E0F80185810E94AF0B64E170E080E0D7
:1029700090E00E94B30AF89461E0F80185810E941A
:10298000AF0B88E290E00E94EA0A62E0F8018581DC
:102990000E94760B8AE090E00E94EA0A60E0C8019B
:1029A00050DF672B682B692B39F061E0C80149DFE4
:1029B000672B682B692B21F4F801118A78946CC07D
:1029C0006E01FFEBCF1AFEEFDF0A9E012F5F3F4F34
:1029D000790160E0C80135DFF7016083718382838C
:1029E000938361E0C8012DDFF701648375838683DB
:1029F0009783F8E0EF0EF11CEC14FD0451F7789486
:102A00009E012F5F3F4F790120E030E0F7014081C8
:102A100051816281738184819581A681B78141153D
:102A2000510561057105B1F10097A105B10591F15D
:102A3000F901F595E795F595E795F595E795E00F9B
:102A4000F11FD080DD0C481759076A077B0710F08B
:102A5000D08203C08D2D816080832F5F3F4FF8E0CF
:102A6000EF0EF11C2832310589F6F801248130E09F
:102A70004081818190E0840F911D4281840F911DDE
:102A80004381840F911D99272817390719F481E094
:102A9000818B03C0F801118A80E0C05CDE4F0FB665
:102AA000F894DEBF0FBECDBFDF91CF911F910F9184
:102AB000FF90EF90DF90CF900895CF92DF92EF924A
:102AC000FF920F931F93CF93DF93EC01162F642F88
:102AD00001DF882309F43BC08E818B3031F008F48C
:102AE00036C08551823038F032C06A8170E080E0B3
:102AF00090E0E3D11FC00A81602F6F7770E080E023
:102B000090E0DDD120E030E040E853E48CD26B016E
:102B10007C016B8170E080E090E0D1D19B01AC0141
:102B2000C701B601C9D02DEC3CEC4CEC5DE37BD287
:102B300007FD9058112379F026E636E646EE5FE36E
:102B400072D220E030E040E052E4B6D004C060E051
:102B500070E080EC9FE7DF91CF911F910F91FF9084
:102B6000EF90DF90CF900895CF92DF92EF92FF9297
:102B7000CF93DF93EC0160E0ADDE882349F18E81D5
:102B80008B3001F128F18551823010F5688170E0B9
:102B900080E090E092D120E030E040E853E443D27E
:102BA0006B017C01698170E080E090E088D19B013D
:102BB000AC01C701B60180D02DEC3CEC4CEC5DE3E0
:102BC00032D20AC0688170E080E090E076D104C023
:102BD00060E070E080EC9FE7DF91CF91FF90EF9095
:102BE000DF90CF900895AA1BBB1B51E107C0AA1F1D
:102BF000BB1FA617B70710F0A61BB70B881F991F9E
:102C00005A95A9F780959095BC01CD01089597FB41
:102C1000072E16F4009406D077FD08D0E4DF07FCF9
:102C200005D03EF4909581959F4F089570956195DC
:102C30007F4F0895A1E21A2EAA1BBB1BFD010DC0F8
:102C4000AA1FBB1FEE1FFF1FA217B307E407F5075C
:102C500020F0A21BB30BE40BF50B661F771F881F38
:102C6000991F1A9469F760957095809590959B01CE
:102C7000AC01BD01CF010895A29FB001B39FC00177
:102C8000A39F700D811D1124911DB29F700D811D98
:102C90001124911D0895F0DFA59F900DB49F900D14
:102CA000A49F800D911D11240895EE0FFF1F059024
:102CB000F491E02D09945058BB27AA270ED075C176
:102CC00066D130F06BD120F031F49F3F11F41EF447
:102CD0005BC10EF4E095E7FB51C1E92F77D180F39A
:102CE000BA17620773078407950718F071F49EF509
:102CF0008FC10EF4E0950B2EBA2FA02D0B01B90158
:102D000090010C01CA01A0011124FF27591B99F061
:102D1000593F50F4503E68F11A16F040A22F232F6D
:102D2000342F4427585FF3CF469537952795A795BD
:102D3000F0405395C9F77EF41F16BA0B620B730B64
:102D4000840BBAF09150A1F0FF0FBB1F661F771FD5
:102D5000881FC2F70EC0BA0F621F731F841F48F48A
:102D6000879577956795B795F7959E3F08F0B3CF10
:102D70009395880F08F09927EE0F979587950895FA
:102D8000D9D008F481E008950CD00FC107D140F0EC
:102D9000FED030F021F45F3F19F0F0C0511139C17D
:102DA000F3C014D198F39923C9F35523B1F3951BBC
:102DB000550BBB27AA2762177307840738F09F5F5C
:102DC0005F4F220F331F441FAA1FA9F333D00E2ECB
:102DD0003AF0E0E830D091505040E695001CCAF738
:102DE00029D0FE2F27D0660F771F881FBB1F2617FD
:102DF00037074807AB07B0E809F0BB0B802DBF01D0
:102E0000FF2793585F4F2AF09E3F510568F0B6C0E8
:102E100000C15F3FECF3983EDCF3869577956795AC
:102E2000B795F7959F5FC9F7880F911D9695879580
:102E300097F90895E1E0660F771F881FBB1F62179F
:102E400073078407BA0720F0621B730B840BBA0B5D
:102E5000EE1F88F7E095089504D06894B111D9C0A9
:102E60000895BCD088F09F5790F0B92F9927B7519B
:102E7000A0F0D1F0660F771F881F991F1AF0BA953E
:102E8000C9F712C0B13081F0C3D0B1E00895C0C01D
:102E9000672F782F8827B85F39F0B93FCCF3869534
:102EA00077956795B395D9F73EF490958095709591
:102EB00061957F4F8F4F9F4F0895E89409C097FB0E
:102EC0003EF490958095709561957F4F8F4F9F4F01
:102ED0009923A9F0F92F96E9BB279395F695879545
:102EE00077956795B795F111F8CFFAF4BB0F11F408
:102EF00060FF1BC06F5F7F4F8F4F9F4F16C08823AF
:102F000011F096E911C0772321F09EE8872F762FE4
:102F100005C0662371F096E8862F70E060E02AF025
:102F20009A95660F771F881FDAF7880F9695879511
:102F300097F90895990F0008550FAA0BE0E8FEEFE6
:102F400016161706E807F907C0F012161306E4076D
:102F5000F50798F0621B730B840B950B39F40A2666
:102F600061F0232B242B252B21F408950A2609F444
:102F7000A140A6958FEF811D811D089597F99F6748
:102F800080E870E060E008959FEF80EC08950024F1
:102F90000A941616170618060906089500240A94BE
:102FA00012161306140605060895092E0394000C44
:102FB00011F4882352F0BB0F40F4BF2B11F460FFD3
:102FC00004C06F5F7F4F8F4F9F4F089557FD9058FC
:102FD000440F551F59F05F3F71F04795880F97FBDD
:102FE000991F61F09F3F79F0879508951216130697
:102FF0001406551FF2CF4695F1DF08C016161706C6
:103000001806991FF1CF86957105610508940895FA
:10301000E894BB2766277727CB0197F908958ADFC5
:1030200008F48FEF08950BD0C0CFB1DF28F0B6DFE2
:1030300018F0952309F0A2CFA7CF1124EACFC6DF5D
:10304000A0F3959FD1F3950F50E0551F629FF001BB
:10305000729FBB27F00DB11D639FAA27F00DB11D14
:10306000AA1F649F6627B00DA11D661F829F22279D
:10307000B00DA11D621F739FB00DA11D621F839F24
:10308000A00D611D221F749F3327A00D611D231FFA
:10309000849F600D211D822F762F6A2F11249F5748
:1030A00050408AF0E1F088234AF0EE0FFF1FBB1F6B
:1030B000661F771F881F91505040A9F79E3F51050A
:1030C00070F05CCFA6CF5F3FECF3983EDCF38695C3
:1030D00077956795B795F795E7959F5FC1F7FE2BB5
:1030E000880F911D9695879597F9089523DF880B92
:0830F000990B0895F894FFCF3D
:1030F8000000CA038000170001AD09AD09014F7037
:10310800656E456E657267794D6F6E69746F722E64
:103118006F726700656D6F6E5448202D2046697286
:103128006D7761726520560052464D3639435720F7
:10313800496E69743E20004E6F64653A200020464F
:103148007265713A20003433334D687A00204E6539
:1031580074776F726B3A20004E6F204448543232B5
:1031680000446574656374656420444854323200D1
:103178004E6F2044533138423230004465746563E1
:10318800746564200044533138423230202620448C
:103198004854323220666F756E642C2061737375E3
:1031A8006D65204453313842323020697320657888
:1031B8007465726E616C0044533138423230205469
:1031C800656D70657261747572653A2000432C20D4
:1031D8000044485432322054656D706572617475CC
:1031E80072653A2000432C204448543232204875F6
:1031F8006D69646974793A2000252C200042617455
:103208007465727920766F6C746167653A20005630
:103218002C2050756C736520636F756E743A2000AE
:103228000000000036069F07BA05D305C505150638
:103238000D0A006E616E00696E66006F7666002E7C
:0A324800002B565A5E00BC0077010F
:00000001FF
