:10000000F6C000000C94520A0C94790A18C1000042
:1000100016C1000014C100002AC1000010C1000078
:100020000EC100000CC100000AC1000008C10000A0
:1000300006C1000004C1000002C1000000C10000B0
:100040000C94AC0AFCC000004AC700007AC700004C
:10005000F6C00000F4C00000F2C00000F0C00000D4
:100060000C94CE19ECC00000000000080002010052
:100070000003040700000000000000000102040863
:100080001020408001020408102001020408102002
:10009000040404040404040402020202020203032E
:1000A00003030303000000002300260029000000D2
:1000B0000000250028002B0000000000240027007D
:1000C0002A00010402000302048A050506C30B206E
:1000D00019421E2C25802E902FAA302D3700380073
:1000E0003C8F3D106F2000005EBCE2613FDD83C2AB
:1000F0009C7E20A3FD1F419DC3217FFCA2401E5F6B
:1001000001E3BD3E6082DC237D9FC1421CFEA0E175
:10011000BF5D0380DE3C62BEE0025CDF81633D7C4C
:1001200022C09E1D43A1FF4618FAA427799BC584CF
:10013000DA3866E5BB5907DB856739BAE406581932
:1001400047A5FB7826C49A653BD987045AB8E6A729
:10015000F91B45C6987A24F8A6441A99C7257B3A14
:100160006486D85B05E7B98CD2306EEDB3510F4E83
:1001700010F2AC2F7193CD114FADF3702ECC92D302
:100180008D6F31B2EC0E50AFF1134DCE90722C6DDD
:1001900033D18F0C52B0EE326C8ED0530DEFB1F0E4
:1001A000AE4C1291CF2D73CA947628ABF51749083F
:1001B00056B4EA6937D58B5709EBB536688AD495BA
:1001C000CB2977F4AA4816E9B7550B88D6346A2BA1
:1001D0007597C94A14F6A8742AC896154BA9F7B69C
:1001E000E80A54D7896B35001706CF07E5181124A4
:1001F0001FBECFEFD8E0DEBFCDBF12E0A0E0B1E080
:10020000E2E0FBE302C005900D92A637B107D9F7F3
:1002100024E0A6E7B2E001C01D92A93AB207E1F7D7
:1002200011E0CEEED1E004C02297FE010E945C1BDB
:10023000C83ED107C9F70E94A10A0C947F1DE0CEE9
:1002400081E080937A0280917F0290918002A09158
:100250008102B09182020196A11DB11D80937F029F
:1002600090938002A0938102B093820208951F921E
:100270000F920FB60F9211242F933F934F935F93DA
:100280006F937F938F939F93AF93BF93EF93FF935E
:100290000E94090DFF91EF91BF91AF919F918F91B6
:1002A0007F916F915F914F913F912F910F900FBE72
:1002B0000F901F901895BF92CF92DF92EF92FF920E
:1002C0000F931F93CF93DF932AE7E22EF12CF701D0
:1002D000B0800BE710E0F801C080CCE7D0E0D88018
:1002E0000E94B70CF701B082F801C082D882DF917A
:1002F000CF911F910F91FF90EF90DF90CF90BF9023
:1003000008958F929F92AF92BF92CF92DF92EF9219
:10031000FF920F931F93CF93DF9300D000D000D0B4
:10032000CDB7DEB761E089E00E94E80B61E089E0CB
:100330000E94210C62E087E00E94E80B62E088E006
:100340000E94E80B87E00E94560CEE24E394892B70
:1003500009F4E12C88E00E94560CFF24F394892BC9
:1003600009F4F12CE11009C0809106019091070178
:10037000FF2009F444C2019607C0F11009C0809122
:100380000601909107010296909307018093060160
:1003900020E436E042ED61E0809106010E940F0DFD
:1003A0000AE010E01093A6020093A5024CE065EA73
:1003B00072E080E00E94740D64E670E080E090E0FE
:1003C0000E94250B0150110968F782E00E94900DF0
:1003D0001092A6021092A50280E00E94AE0D8091BC
:1003E0000801882309F458C026E040E855E260E09F
:1003F00070E088EE92E011D56E2D70E04AE050E09A
:1004000088EE92E0FDD66F2D70E04AE050E088EE75
:1004100092E0FDD662E171E088EE92E04CD668E2AF
:1004200071E088EE92E03CD622E030E040E050E01F
:1004300060E470E488EE92E0F2D76CE371E088EE5D
:1004400092E039D66BE471E088EE92E029D66091B3
:100450000601709107014AE050E088EE92E0D0D6A4
:1004600062E571E088EE92E01BD66AE571E088EE05
:1004700092E016D661E671E088EE92E011D64AE08D
:1004800050E062ED70E088EE92E0C1D664E670E084
:1004900080E090E00E94250B61E086E00E94E80B7E
:1004A00061E085E00E94E80B60E081E00E94E80BDB
:1004B00060E086E00E94210C62E083E00E94E80B8D
:1004C00061E086E00E94210C80ED97E0F4DE84ED8F
:1004D00092E00E94831460E084ED92E00E9428166E
:1004E0006B017C0140E060E084ED92E00E94D11558
:1004F0004B015C0160E086E00E94210CA5019401A3
:10050000C501B4010E947B1D8111B3C0A7019601F2
:10051000C701B6010E947B1D8111ABC081E08093B1
:10052000D30280910801882329F065E771E088EE05
:1005300092E0C1D587EE92E00E94681687EE92E0C5
:100540000E94B0178C01009709F456C064E871E06E
:1005500088EE92E0A5D54AE050E0B80188EE92E03E
:1005600056D681E08093E6028091D302882339F049
:1005700063E971E088EE92E09ED51092D30287EE97
:1005800092E00E94261729833A834B835C836D8314
:100590007E8363EA71E088EE92E082D569817A8198
:1005A000882777FD8095982F0E94641C20E030E01A
:1005B00048EC52E40E94C91BAB01BC0122E030E0D0
:1005C00088EE92E02CD76EEA71E088EE92E068D572
:1005D0006D817E8180E090E00E94621C20E030E02E
:1005E00048EC52E40E94C91BAB01BC0122E030E0A0
:1005F00088EE92E014D707C01092E60269EB71E032
:1006000088EE92E058D561E085E00E94210C62E31B
:1006100070E080E090E00E94250B82EB92E00E9467
:10062000011360E082EB92E00E94581382EB92E0AB
:100630000E94A71190E09093A4028093A30210E07F
:10064000612F70E08091A3029091A402681779074E
:10065000E4F533E0660F771F3A95E1F76D577D4F6C
:1006600041E085EC92E00E94F310882371F11F5F56
:10067000E7CF8CED95E00E94B70C60E084ED92E04E
:100680000E9428166B017C0140E060E084ED92E05E
:100690000E94D1159B01AC010E947B1D811109C0F4
:1006A000A7019601C701B6010E947B1D882309F4AA
:1006B00041CF80910801882329F06CE671E088EE33
:1006C00092E0F9D41092D30235CF60E085E00E9429
:1006D000210C8091A3029091A40220910801892B02
:1006E00051F4222329F06AEC71E088EE92E0E3D421
:1006F0001092B10225C081E08093B102222301F162
:1007000065ED71E088EE92E0CBD46091A302709128
:10071000A4024AE050E088EE92E072D56CEC71E001
:1007200088EE92E0C8D48091D302811104C08091F8
:10073000E602882329F06CED71E088EE92E0BBD4EC
:1007400080910801882329F068EC70E080E090E057
:100750007CD760E089E00E94210C1092AD021092DB
:10076000AE021092AF021092B00210927F0210926D
:100770008002109281021092820280ED92E0A0E04D
:10078000B0E080937B0290937C02A0937D02B093B3
:100790007E0210927A0243E050E060E271E081E074
:1007A0004FD680B7806880BF80910801811105C055
:1007B000809164008260809364008091640080680E
:1007C00080936400809164008860809364008091CD
:1007D000640084608093640026960FB6F894DEBFB0
:1007E0000FBECDBFDF91CF911F910F91FF90EF9082
:1007F000DF90CF90BF90AF909F908F900895039619
:10080000C3CDCF92DF92EF92FF920F931F93CF93BE
:10081000DF9300D000D000D0CDB7DEB780917A0250
:10082000882331F082E390E00E94B70C10927A02A4
:1008300080E590E00E94B70C813099F480917B02B2
:1008400090917C02A0917D02B0917E020196A11D43
:10085000B11D80937B0290937C02A0937D02B093A4
:100860007E0280917B0290917C02A0917D02B091EA
:100870007E02823B9240A105B10570F480917F0217
:1008800090918002A0918102B091820284369105FC
:10089000A105B10508F4BCC1F89480917F02909144
:1008A0008002A0918102B0918202AA27BB274091C9
:1008B000AD025091AE026091AF027091B002840F10
:1008C000951FA61FB71F8093AD029093AE02A09311
:1008D000AF02B093B00210927F0210928002109289
:1008E00081021092820278948091B102882309F4E7
:1008F00055C061E085E0A5D782E390E0DCDC03E849
:1009000012E0E12CF12C8091A3029091A402E81650
:10091000F90664F44BE0B80182EB92E00E948E127B
:100920008FEFE81AF80A085F1F4FEDCF82EB92E0D5
:100930000E94D71387E791E0BEDC63E872E082EBA8
:1009400092E00E9460146B017C0160E085E079D741
:1009500020E030E04AEF52E4C701B6010E94C51B17
:1009600087FF1CC020E030E040E252ECC701B60136
:100970000E94141D181694F48091D30220E030E0F8
:1009800040E251E4811139C1C701B6010E94181D2E
:100990000E94311C7093A6026093A5028091D3023D
:1009A000882309F442C061E086E04BD780ED97E0F0
:1009B00082DC60E084ED92E00E94281620E030E0C6
:1009C00040E251E40E94181D0E94311C7093AA025B
:1009D0006093A90240E060E084ED92E00E94D115AE
:1009E0006B017C0120E030E04AEA52E40E94C51B22
:1009F00087FF18C020E030E040E252ECC701B601AA
:100A00000E94141D181674F420E030E040E251E416
:100A1000C701B6010E94181D0E94311C7093A602E6
:100A20006093A50260E086E00CD781E08BD6BC0124
:100A3000882777FD8095982F0E94641C27E031E27B
:100A400044E05DE30E94181D0E94311C7093AC02CB
:100A50006093AB02809164008B7F809364008091EF
:100A6000E6028823B1F087EE92E00E9426172983E0
:100A70003A834B835C836D837E8389819A819093D3
:100A8000A6028093A5028D819E819093AA028093F5
:100A9000A9028FEF0E94AE0D84E690E00CDC4CE0E2
:100AA00065EA72E080E00E94740D82E00E94900D81
:100AB00080E00E94AE0D84E690E0FDDB8091640052
:100AC00084608093640080910801882309F483C0C6
:100AD00060E172E088EE92E0E3D26091A50270914D
:100AE000A6024AE050E088EE92E08AD366E172E026
:100AF00088EE92E0D5D28091D302811104C080911A
:100B0000E6028823B9F08091B102882399F068E168
:100B100072E088EE92E0C4D26091A7027091A802C0
:100B20004AE050E088EE92E06BD366E172E088EE36
:100B300092E0B6D28091D302811104C08091E60286
:100B4000882399F061E272E088EE92E0A9D2609188
:100B5000A9027091AA024AE050E088EE92E050D3D8
:100B600066E172E088EE92E09BD26BE272E088EE82
:100B700092E096D26091AB027091AC024AE050E0F4
:100B800088EE92E03DD366E172E088EE92E088D292
:100B90008091AD029091AE02A091AF02B091B002EF
:100BA000892B8A2B8B2B91F065E372E088EE92E023
:100BB00077D24091AD025091AE026091AF02709138
:100BC000B0022AE030E088EE92E037D362E370E0D2
:100BD00080E090E03AD50AD5609376027093770270
:100BE000809378029093790210927B0210927C029B
:100BF00010927D0210927E020BC0C701B6010E94C6
:100C0000181D0E94311C7093A8026093A702C6CEE3
:100C100026960FB6F894DEBF0FBECDBFDF91CF9101
:100C20001F910F91FF90EF90DF90CF90089587EE86
:100C300092E00E94671626E046E161E184ED92E0D1
:100C40000E94621460E185EC92E00E94D21065EC93
:100C500072E082EB92E00C949811FC01818D228D60
:100C600090E0805C9F4F821B91098F7399270895B4
:100C7000FC01918D828D981731F0828DE80FF11D66
:100C8000858D90E008958FEF9FEF0895FC01918D81
:100C9000828D981761F0828DDF01A80FB11D5D96DE
:100CA0008C91928D9F5F9F73928F90E008958FEF4C
:100CB0009FEF089586EC97E0892B41F080E090E06B
:100CC000892B21F063D181110C9400000895FC015F
:100CD000848DDF01A80FB11DA35ABF4F2C91848DC5
:100CE00090E001968F739927848FA689B7892C93FA
:100CF000A089B1898C9180648C93938D848D981395
:100D000006C00288F389E02D80818F7D808308955D
:100D1000CF93DF93EC01888D8823C1F0EA89FB89AA
:100D2000808185FD05C0A889B9898C9186FD0EC09A
:100D30000FB607FCF5CF808185FFF2CFA889B9896E
:100D40008C9185FFEDCFCE01C2DFE8CFDF91CF914F
:100D50000895CF92DF92FF920F931F93CF93DF936B
:100D60001F92CDB7DEB76C0181E0D60158968C9307
:100D700058975B969C915B975C968C915C979813C7
:100D800007C05096ED91FC915197808185FD2DC053
:100D9000F601038D10E00F5F1F4F0F731127F02E28
:100DA000F601848DF81210C00FB607FCF9CFD601FA
:100DB0005096ED91FC915197808185FFF1CFC6014E
:100DC000698385DF6981ECCF838DE80FF11DE35ADC
:100DD000FF4F6083D6015B960C935B975296ED9123
:100DE000FC915397808180620CC0D6015696ED919C
:100DF000FC91579760835096ED91FC9151978081BB
:100E00008064808381E090E00F90DF91CF911F910B
:100E10000F91FF90DF90CF900895BF92CF92DF9215
:100E2000EF92FF92CF93DF93EC016A017B01B22E28
:100E3000E889F98982E08083411581EE58076105D0
:100E40007105A1F060E079E08DE390E0A7019601E3
:100E50000E941F1B215031094109510956954795A0
:100E600037952795211580E1380798F0E889F989A9
:100E7000108260E874E88EE190E0A70196010E947C
:100E80001F1B215031094109510956954795379546
:100E90002795EC85FD853083EE85FF852083188EB0
:100EA000EC89FD89B082EA89FB8980818061808339
:100EB000EA89FB89808188608083EA89FB89808157
:100EC00080688083EA89FB8980818F7D8083DF91C0
:100ED000CF91FF90EF90DF90CF90BF9008951F9239
:100EE0000F920FB60F9211242F938F939F93EF932E
:100EF000FF93E091F802F091F9028081E091FE0207
:100F0000F091FF0282FD12C09081809101038F5FFA
:100F10008F7320910203821751F0E0910103F0E0FA
:100F2000E851FD4F958F8093010301C08081FF91AF
:100F3000EF919F918F912F910F900FBE0F901F9067
:100F400018951F920F920FB60F9211242F933F9373
:100F50004F935F936F937F938F939F93AF93BF93C1
:100F6000EF93FF9388EE92E0B2DEFF91EF91BF9195
:100F7000AF919F918F917F916F915F914F913F9131
:100F80002F910F900FBE0F901F90189588EE92E052
:100F900064DE21E0892B09F420E0822F089510926D
:100FA000EB021092EA0288EE93E0A0E0B0E08093BA
:100FB000EC029093ED02A093EE02B093EF0280E476
:100FC00092E09093E9028093E80285EC90E09093A0
:100FD000F5028093F40284EC90E09093F702809302
:100FE000F60280EC90E09093F9028093F80281EC95
:100FF00090E09093FB028093FA0282EC90E0909351
:10100000FD028093FC0286EC90E09093FF028093B7
:10101000FE02109201031092020310920303109239
:1010200004030895CF92DF92EF92FF920F931F93E4
:10103000CF93DF937C016A01EB0100E010E00C1517
:101040001D0571F06991D701ED91FC910190F0813E
:10105000E02DC7010995892B19F00F5F1F4FEFCFC6
:10106000C801DF91CF911F910F91FF90EF90DF901A
:10107000CF9008956115710581F0DB010D9000207E
:10108000E9F7AD0141505109461B570BDC01ED91C9
:10109000FC910280F381E02D099480E090E00895B6
:1010A000E9CFDC01ED91FC910190F081E02D0994F4
:1010B0006CE472E0DFCF0F931F93CF93DF93EC01CB
:1010C000D9DF8C01CE01F4DF800F911FDF91CF912A
:1010D0001F910F9108958F929F92AF92BF92DF92CE
:1010E000EF92FF920F931F93CF93DF93CDB7DEB7AD
:1010F000A1970FB6F894DEBF0FBECDBF7C01F42FD1
:10110000D52ECB0119A2223008F42AE08E010F5D02
:101110001F4F822E912CA12CB12C6F2F7D2DA5015C
:1011200094010E941F1BF22FD32ECA0101501109F6
:101130006A3014F4E0E301C0E7E3E60FD801EC9372
:10114000232B242B252B49F7B801C70193DFA19648
:101150000FB6F894DEBF0FBECDBFDF91CF911F91C8
:101160000F91FF90EF90DF90BF90AF909F908F9086
:101170000895CF92DF92EF92FF920F931F93CF9338
:10118000DF93EC016A017B012115310579F4E881D7
:10119000F9810190F081E02D642FDF91CF911F91B3
:1011A0000F91FF90EF90DF90CF9009942A30310596
:1011B000D9F477FF18C06DE274DF8C0144275527FE
:1011C000BA014C195D096E097F092AE0CE0183DF5F
:1011D000800F911FDF91CF911F910F91FF90EF90A2
:1011E000DF90CF9008952AE0B701A601CE01DF91EC
:1011F000CF911F910F91FF90EF90DF90CF906BCF29
:101200009A01AB01662757FD6095762FB2CF0F93F9
:101210001F93CF93DF93EC019A01AB01662757FD33
:101220006095762FA6DF8C01CE0142DF800F911FE3
:10123000DF91CF911F910F9108952115310541F450
:10124000DC01ED91FC910190F081E02D642F099477
:1012500042CF4F925F926F927F928F929F92AF9206
:10126000BF92CF92DF92EF92FF920F931F93CF9393
:10127000DF93EC016A017B01B22E9A01AB01C70139
:10128000B6010E947B1D882319F06FE472E027C02D
:1012900026013701E89477F82FEF3FEF4FE75FE73C
:1012A000C301B2010E947B1D81110DC02FEF3FEFE2
:1012B0004FE75FE7C301B2010E94C51B18161CF47B
:1012C00063E572E00CC02FEF3FEF4FE75FE4C7012B
:1012D000B6010E94141D1816A4F467E572E0CE0151
:1012E000DF91CF911F910F91FF90EF90DF90CF9002
:1012F000BF90AF909F908F907F906F905F904F9036
:10130000B9CE2FEF3FEF4FE75FECC701B6010E9468
:10131000C51B87FDE2CF20E030E0A901C701B6017F
:101320000E94C51B87FF09C06DE2CE01BADE8C01A9
:10133000F7FAF094F7F8F09402C000E010E0A12C66
:1013400060E070E080E09FE3AB1441F020E030E02B
:1013500040E251E40E94C91BA394F6CF9B01AC016B
:10136000C701B6010E94611B6B017C010E94361C03
:101370002B013C010E94621C9B01AC01C701B6011C
:101380000E94601B6B017C012AE0B301A201CE0127
:10139000A2DE080F191FBB2031F06BE572E0CE0111
:1013A00069DE080F191F7B2C772039F120E030E02F
:1013B00040E251E4C701B6010E94181D6B017C0197
:1013C0000E94311C4B01AA2497FCA094BA2C2AE05D
:1013D00030E0B501A401CE01CCDE080F191FC50114
:1013E000B4010E94641C9B01AC01C701B6010E94BC
:1013F000601B6B017C017A94D7CFC801DF91CF913C
:101400001F910F91FF90EF90DF90CF90BF90AF9022
:101410009F908F907F906F905F904F9008950F9363
:101420001F93CF93DF93EC0114DF8C01CE0140DEDC
:10143000800F911FDF91CF911F910F910895089513
:101440008230E8F4E82FF0E0EE0FFF1FE75FFE4F79
:1014500071836083813041F0809169008C7F842B9F
:1014600080936900E89A089580916900440F551FA0
:10147000440F551F837F842B80936900E99A089558
:10148000823078F4813011F0E89801C0E998E82FB3
:10149000F0E0EE0FFF1FE75FFE4F8FE19AE09183D0
:1014A000808308951F920F920FB60F9211242F93ED
:1014B0003F934F935F936F937F938F939F93AF93DC
:1014C000BF93EF93FF93E0910901F0910A01099511
:1014D000FF91EF91BF91AF919F918F917F916F910C
:1014E0005F914F913F912F910F900FBE0F901F90E2
:1014F00018951F920F920FB60F9211242F933F93BE
:101500004F935F936F937F938F939F93AF93BF930B
:10151000EF93FF93E0910B01F0910C010995FF917E
:10152000EF91BF91AF919F918F917F916F915F915B
:101530004F913F912F910F900FBE0F901F901895D4
:101540000895C5D0FDDF0E948101CAE5D6E059D9D2
:101550002097E9F3AFDBFBCF1F920F920FB60F92EC
:1015600011242F933F938F939F93AF93BF938091B9
:10157000860390918703A0918803B09189033091ED
:10158000850323E0230F2D3720F40196A11DB11D03
:1015900005C026E8230F0296A11DB11D20938503E7
:1015A0008093860390938703A0938803B093890365
:1015B00080918A0390918B03A0918C03B0918D034D
:1015C0000196A11DB11D80938A0390938B03A09374
:1015D0008C03B0938D03BF91AF919F918F913F91F9
:1015E0002F910F900FBE0F901F9018952FB7F89462
:1015F000609186037091870380918803909189039D
:101600002FBF08953FB7F89480918A0390918B0380
:10161000A0918C03B0918D0326B5A89B05C02F3FE8
:1016200019F00196A11DB11D3FBF6627782F892FA4
:101630009A2F620F711D811D911D42E0660F771F69
:10164000881F991F4A95D1F708958F929F92AF9264
:10165000BF92CF92DF92EF92FF926B017C01D2DFBB
:101660004B015C01C114D104E104F104E1F046D165
:10167000C9DF681979098A099B09683E73408105A9
:10168000910580F321E0C21AD108E108F10888EE43
:10169000880E83E0981EA11CB11CC114D104E10482
:1016A000F10431F7DFCFFF90EF90DF90CF90BF9044
:1016B000AF909F908F9008958230910538F0880FF9
:1016C000991F880F991F05970197F1F7089578944E
:1016D00084B5826084BD84B5816084BD85B5826037
:1016E00085BD85B5816085BDEEE6F0E080818160D5
:1016F0008083E1E8F0E010828081826080838081D5
:1017000081608083E0E8F0E0808181608083E1EBAC
:10171000F0E0808184608083E0EBF0E08081816094
:101720008083EAE7F0E0808184608083808182604A
:101730008083808181608083808180688083109233
:10174000C10008958E3008F08E50877020910D01F1
:1017500090E4299F90011124822B80937C0080913A
:101760007A00806480937A0080917A0086FDFCCFB5
:10177000809178002091790090E0922B0895833039
:1017800081F028F4813099F08230A1F008958730FB
:10179000A9F08830B9F08430D1F4809180008F7D39
:1017A00003C0809180008F7780938000089584B576
:1017B0008F7702C084B58F7D84BD08958091B0007D
:1017C0008F7703C08091B0008F7D8093B000089523
:1017D000CF93DF9390E0FC01E458FF4F2491FC018C
:1017E000E057FF4F8491882349F190E0880F991FBB
:1017F000FC01E854FF4FA591B49182559F4FFC0125
:10180000C591D4919FB7611108C0F8948C9120952F
:1018100082238C93888182230AC0623051F4F89429
:101820008C91322F309583238C938881822B8883EF
:1018300004C0F8948C91822B8C939FBFDF91CF9141
:1018400008950F931F93CF93DF931F92CDB7DEB709
:10185000282F30E0F901E859FF4F8491F901E4584D
:10186000FF4F1491F901E057FF4F04910023C1F09D
:10187000882319F0698383DF6981E02FF0E0EE0FA0
:10188000FF1FE255FF4FA591B4919FB7F8948C913B
:10189000611103C01095812301C0812B8C939FBFE0
:1018A0000F90DF91CF911F910F910895CF93DF9308
:1018B000282F30E0F901E859FF4F8491F901E458ED
:1018C000FF4FD491F901E057FF4FC491CC2389F029
:1018D000811155DFEC2FF0E0EE0FFF1FEC55FF4FAD
:1018E000A591B4912C912D2381E090E021F480E02A
:1018F00002C080E090E0DF91CF910895089583FFCA
:1019000002C098E2892787FD06C08064909160003C
:1019100090938E0302C080918E0394B7977F94BFFB
:10192000F8949091600098619093600080936000BB
:1019300078940895EAE7F0E0908180818F77808342
:1019400083B7817F846083BFF89483B7816083BF4E
:1019500085B7806685BF85B78F79806485BF7894A9
:10196000889583B78E7F83BF90937A000895DF9226
:10197000EF92FF920F931F93CF93DF938C01EC01B3
:1019800028E0E22EF12CC031D10520F19E01D12CAE
:101990002032310538F0D39489E0D81619F0369505
:1019A0002795F6CF10928F038D2DA9DFC3DF8FEF20
:1019B000A6DFC70102C0880F991FDA94E2F7C81B9F
:1019C000D90B20918F03222319F0C81BD90BDBCF31
:1019D00080E001C081E040918603509187036091CF
:1019E0008803709189030C1B1D0B400F511F611D53
:1019F000711D40938603509387036093880370930F
:101A00008903DF91CF911F910F91FF90EF90DF90AD
:101A1000089580918F038F5F80938F030895CF92F5
:101A2000DF92EF92FF921F93CF93DF93C82F162F71
:101A3000D42FF901AFEFA60FA33028F4B0E0A35ADA
:101A4000BD4FAC9101C0A0E0B0E020E836E948E924
:101A500050E00E94501B6B017C01212F30E0A4EC70
:101A6000B9E00E94411BDF019B01AC010E94501BA9
:101A7000C60ED71EE81EF91EC701B601AFD0D0931F
:101A8000E3038C2F8F718093E20364E170E080E0C8
:101A900090E0DBDD8091E203882339F043E050E001
:101AA00065E47FE080E0CCDC02C080E0E9DCD4D0FB
:101AB000C09390038C2FDF91CF911F91FF90EF90F7
:101AC000DF90CF90089581E993E016D19093DA03E7
:101AD0008093D9032091D9033091DA0381E02F3F1D
:101AE0003F4F09F480E00895EF92FF921F93CF9348
:101AF000DF931F92CDB7DEB7182F7B0149838BD0C0
:101B00004981811104C04983DEDF4981F7CFB701E4
:101B1000812F0F90DF91CF911F91FF90EF9048C1DF
:101B2000CF93C82F88D08823B9F0CC23D9F383B7BB
:101B3000817FC33021F0C23021F49CE003C094E0E7
:101B400001C090E0892B83BF83B7816083BF8895F4
:101B500083B78E7F83BFE6CFCF91089591E0811147
:101B600090E0892F6FC08627682F62956827062E20
:101B7000669566956025062E669560256770082E29
:101B8000892F669507946795902D8627069467950B
:101B9000902586270895E8982A988EBD0DB407FEF3
:101BA000FDCF8EB56EBD0DB407FEFDCF8EB52A9A62
:101BB000E89A089560E0EFCF88E2FCDF807519F0C5
:101BC00080E0F8DFF9CF0895CF93C82F81E0F2DFEE
:101BD000682F637E6C2B81E8CF91DDCF22E0660F0A
:101BE000771F881F991F2A95D1F729E03DE340E030
:101BF00050E00E941F1B66E0220F331F441F551F39
:101C00006A95D1F72093E4033093E5034093E6030C
:101C10005093E70308958091DD03853021F480918E
:101C2000DE03882311F080E0089584E08093DD03D3
:101C3000CBDF81E008959091DD0381E094300CF0DA
:101C400080E00895882311F080E001C084E0BCDFCB
:101C500084E08093DD030895CF93DF932A9A229A3C
:101C60002A9A84B18C6284B980E58CBD8DB581607F
:101C70008DBD6AEA8FEA8FDF8FE29CDF8A3AC9F76F
:101C800065E58FEA88DF8FE295DF8535C9F7C2EC1D
:101C9000D0E0FE018491882331F031966491806810
:101CA0007ADF2296F6CF6091E30381EB74DF8091B7
:101CB000E4039091E503A091E603B091E703BD0131
:101CC0008827992787E867DF8091E4039091E503EF
:101CD000A091E603B091E703692F7A2F8B2F992704
:101CE00088E859DF6091E40389E855DF84E0809358
:101CF000DD03DF91CF910895CF93DF93EC018091C5
:101D0000DD03843019F08530F9F047C01092930359
:101D10001092DE036091E3038FEF9FEF24DF909337
:101D2000E1038093E003D093DC03C093DB0385E001
:101D30008093DD0341DF60E885EA2DDF80E144DF49
:101D400062E08EE928DF29C0809193032091DE03B1
:101D500090E0049630E08217930724F08091DE0330
:101D60008834D8F084E08093DD032EDF80919303E4
:101D70008334B0F48091E0039091E103892B81F4E6
:101D80008091920386FF0FC09091E2039F3159F03A
:101D9000809192038F71891731F08FEF9FEF05C00B
:101DA00081E090E002C080E090E0DF91CF91089563
:101DB000CF9340939303FB0120E030E050E02417E1
:101DC000350744F4D901AC56BC4F91919C932F5FD9
:101DD0003F4FF5CF86FD04C0807E9091E203890FCE
:101DE000809392036091E3038FEF9FEFBCDE9093AB
:101DF000E1038093E003909193038EEF891B80931E
:101E0000DD03DADE8CE0E0DE60E085EAC4DE8091AE
:101E1000DD038330C4F588E2CDDE87FDF8CF809105
:101E2000DD0387FF1AC0909193038091DD03E09159
:101E3000DB03F091DC03E90FF11DE80FF11D87FDD5
:101E4000FA95C3816C2F8091E0039091E1038BDEC2
:101E50009093E1038093E0030DC08091DD0388231C
:101E600029F0813031F4C091E10304C0C091E00356
:101E700001C0CAEA6C2F80E88EDE8091DD038F5F9F
:101E80008093DD03C4CFCF910895CF938091DD037C
:101E9000853009F04FC060E485EA7DDE84E28ADEA9
:101EA0008093DF037894C8E488E284DE8075E1F3F0
:101EB0008091DE0381110FC0E091DB03F091DC0320
:101EC0008091DE0391E0980F9093DE039091E303FD
:101ED000E80FF11D908380E06DDEE091DB03F0916F
:101EE000DC039091DE0321E0290F2093DE03E90F4C
:101EF000F11D8083682F8091E0039091E10333DE30
:101F00009093E1038093E00380919303833410F076
:101F1000C093DE03809193032091DE0390E004964A
:101F200030E08217930794F08091DE03883408F440
:101F3000BBCF0CC088E23EDE83FF08C084E0809304
:101F4000DD0342DE60E885EACF9125CECF9108958A
:101F5000FF920F931F93CF93DF93FC010081C18108
:101F6000D281F8948981F02EF0948F21898378941E
:101F70001DE7115009F182E090E09EDB888180230B
:101F8000C1F3F8948A818F218A838981802B898388
:101F9000789480EE91E090DBF89489818F21898399
:101FA00086E490E089DB8881802311E009F010E06D
:101FB00078948AE991E080DB812FDF91CF911F91A6
:101FC0000F91FF9008951F93CF93DF93FC01108131
:101FD000C181D281912F909560FF11C0F8948A81C0
:101FE00089238A838981812B89838AE090E064DB5D
:101FF0008A81812B8A83789487E390E010C0F894DB
:102000008A8189238A838981812B898381E490E075
:1020100053DB8A81812B8A83789485E090E0DF917D
:10202000CF911F9149CB0F931F93CF93DF93FC0167
:102030001081C181D281F8948981812B89838A8121
:10204000012F009580238A8383E090E035DB89812E
:10205000802389838AE090E02FDBC881789485E330
:1020600090E02ADB1C2381E009F480E0DF91CF912E
:102070001F910F910895CF92DF92EF92FF920F93ED
:102080001F93CF93DF931F92CDB7DEB76C01E62E7F
:1020900008E010E0FF24F39461E09F2D9E2109F4F5
:1020A00060E0C60149838FDFFF0C015011094981AF
:1020B0000115110589F7411115C0F894D601119643
:1020C000ED91FC91129791818C9180958923818368
:1020D0001196ED91FC91129792818C9180958923B4
:1020E000828378940F90DF91CF911F910F91FF9091
:1020F000EF90DF90CF900895EF92FF920F931F9390
:10210000CF93DF938C01C8E0D0E0F12CEE24E39470
:10211000C80189DF8111FE28EE0C2197C9F78F2DA8
:10212000DF91CF911F910F91FF90EF900895CF9283
:10213000DF92FF920F931F93CF93DF931F92CDB740
:10214000DEB78C01F62E40E065E5798394DFCF2C75
:102150007981D72E88E0F82EF60161916F0140E079
:10216000C80189DFFA94C1F70F90DF91CF911F91D9
:102170000F91FF90DF90CF90089540E06CEC7BCF03
:10218000FC0113861586148627E030E0DF01A20FDC
:10219000B31F13961C922115310519F021503109F6
:1021A000F5CF08951F93CF93DF93EC01162F60E0D6
:1021B000812F0EDB612F70E0FB01E458FF4FE491AB
:1021C000E883FB01E057FF4FE491F0E0EE0FFF1FC3
:1021D000EC55FF4F859194919A838983CE01DF91CD
:1021E000CF911F91CDCFAF92BF92CF92DF92EF925E
:1021F000FF920F931F93CF93DF931F92CDB7DEB75C
:102200005C01D62EE72EFC01858581115FC0C501DA
:1022100049839EDE4981811105C0F501138615862B
:1022200014866DC0442319F040E060EF02C040E026
:102230006CEEC50120DF01E0F12CC12C11E0C501DD
:10224000F2DE682FC5016983EEDE6981613019F421
:102250008130B9F432C02F2D30E068131BC0F50176
:102260008385181730F4E20FF31F8381802349F42C
:1022700002C0181731F060E0193058F4F5011487E6
:1022800008C0F501EF0DF11D8381802B838361E090
:1022900009C0C12EF501E20FF31F8381902F9095A5
:1022A00089238383C5018FDE1F5F000F11F4F39430
:1022B00001E0F7E0FF1508F0C2CF113438F0F50166
:1022C000C386C11009C081E0858706C0F501138669
:1022D0001586148680E013C0F50183818823B1F34D
:1022E000ED2DFE2D80E090E0D501A80FB91F1396CB
:1022F0002C912193019688309105B1F781E00F90E0
:10230000DF91CF911F910F91FF90EF90DF90CF90D1
:10231000BF90AF900895DC0180E0615038F0ED91FE
:10232000E827F0E0E951FF4F8491F7CF0895089531
:10233000FC0187E991E1928B818B7683658314821E
:10234000108289E0818381E0828383830895FC0188
:1023500084810895CF93DF93EB0167E0CE01DBDF4B
:1023600091E02F81821390E0892FDF91CF91089522
:10237000CF92DF92EF92FF920F931F93CF93DF9351
:1023800000D0CDB7DEB76C01F42EE52EFC018581BF
:10239000968169837A83DCDD69817A818823F1F013
:1023A000F60185819681C3DE40E06EEBF601858102
:1023B000968161DE0F2D1E2D89E0F82EF6018581B4
:1023C00096819ADEF80181938F01FA94B9F7F601AC
:1023D00085819681BDDD91E0813009F090E0892F03
:1023E0000F900F90DF91CF911F910F91FF90EF9081
:1023F000DF90CF900895CF93DF93EA01B9DF882370
:1024000049F068E0CE0187DF91E02885821390E0F3
:10241000892F01C080E0DF91CF910895EF92FF9264
:102420000F931F93CF93DF93EC018B017A018D8182
:102430009E818EDDB8018D819E8179DE40E06EE463
:102440008D819E8118DE40E0F70162818D819E8141
:1024500012DE40E0F70163818D819E810CDEF80180
:102460008081803131F040E0F70164818D819E816F
:1024700002DE8D819E816CDDB8018D819E8157DEEB
:10248000B8018D819E8153DE488168E48D819E81F3
:10249000F2DD64E170E080E090E0D7D888818823A5
:1024A00029F06AE070E080E090E0CFD88D819E81D5
:1024B000DF91CF911F910F91FF90EF9049CDEF9257
:1024C000FF921F93CF93DF9300D0CDB7DEB77C018F
:1024D000FC018581968169837A833ADD69817A81FD
:1024E000F7018581968123DE40E064EBF701858169
:1024F0009681C1DDF7018581968195DD182FF70161
:102500008581968125DD81E0111180E00F900F908B
:10251000DF91CF911F91FF90EF900895EF92FF927E
:102520000F931F93CF93DF93CDB7DEB72A970FB6E4
:10253000F894DEBF0FBECDBF7C018B01242FAE010E
:102540004F5F5F4F2A8757DF2A858823C9F0F8013C
:1025500080818031B9F02B3041F02C3021F02A30CD
:1025600031F48FE305C08FE703C08FE501C08FE131
:102570008D83AE014F5F5F4FB801C7014FDF02C0CF
:1025800080E001C081E02A960FB6F894DEBF0FBE4E
:10259000CDBFDF91CF911F910F91FF90EF900895E4
:1025A000CF93DF93CDB7DEB729970FB6F894DEBF90
:1025B0000FBECDBFFB0120812031C9F0AE014F5FBE
:1025C0005F4F19DF882379F08D818F3351F020F42C
:1025D0008F3149F489E00CC08F3539F08F3739F0ED
:1025E00002C08AE005C080E003C08BE001C08CE03F
:1025F00029960FB6F894DEBF0FBECDBFDF91CF9105
:102600000895FF920F931F93CF93DF93CDB7DEB75B
:1026100028970FB6F894DEBF0FBECDBF8C01FC012A
:1026200085819681ADDDF801148241E0BE016F5FC6
:102630007F4FF80185819681D6DD882369F1BE013F
:102640006F5F7F4FC80186DE882379F3F8018081B0
:10265000811107C0BE016F5F7F4FC80130DF81115C
:1026600017C0F801F180BE016F5F7F4FC80198DF8E
:102670008F1518F4F801818105C0BE016F5F7F4F8F
:10268000C8018EDFF801818384818F5F8483CDCF81
:1026900081E0F8018083E5CF28960FB6F894DEBF7D
:1026A0000FBECDBFDF91CF911F910F91FF90089585
:1026B000FC0162830895CF93DF93CDB7DEB72997EE
:1026C0000FB6F894DEBF0FBECDBFAE014F5F5F4FB8
:1026D0004FDE81E09981911101C080E029960FB60B
:1026E000F894DEBF0FBECDBFDF91CF9108958F92DA
:1026F0009F92AF92BF92CF92DF92EF92FF920F9391
:102700001F93CF93DF93EC018A016950633048F443
:10271000E62FF0E0EE0FFF1FE05AFD4F8080918022
:1027200004C09EEE892E92E0992E01151105F9F054
:102730008B818823E1F08881811119C00E94F60AFB
:102740006B017C01AA2497FCA094BA2CB801CE019D
:10275000B2DF81111FC00E94F60A681979098A093F
:102760009B096C157D058E059F05A0F4EFCFB40184
:10277000882777FD8095982FDF91CF911F910F913A
:10278000FF90EF90DF90CF90BF90AF909F908F9091
:102790000C94250BDF91CF911F910F91FF90EF903B
:1027A000DF90CF90BF90AF909F908F900895CF9380
:1027B000DF93EC018D819E81CBDB8D819E81DDDC01
:1027C000488164E48D819E8156DC8A81882339F0BA
:1027D00040E050E06981CE01DF91CF9188CFDF9159
:1027E000CF910895FA01208148E0249F900111249F
:1027F000818190E0982F8827990F990F990F282BA6
:10280000392BDB018C918031B9F4678170E08681CE
:10281000AB01481B5109CA019695982F88279795B7
:102820008795FAD660517109207F53E0220F331F3C
:102830005A95E1F7260F371FC9010895EF92FF92CD
:102840000F931F93CF93DF93CDB7DEB729970FB6C2
:10285000F894DEBF0FBECDBF8C017B01AE014F5F90
:102860005F4FC9DD882339F0AE014F5F5F4FB7017D
:10287000C801B8DF02C080E894EE29960FB6F8943C
:10288000DEBF0FBECDBFDF91CF911F910F91FF90A3
:10289000EF900895813824EE92076CF0BC018827F0
:1028A00077FD8095982F0E94641C20E030E040E086
:1028B0005CE30C94181D60E070E08EEF92EC0895DC
:1028C000BDDFE8CFDC0115966C93159716964C93F7
:1028D000169770E0FB01E458FF4FE4911796EC93D4
:1028E0001797FB01E057FF4F649118966C93189768
:1028F00040E85EE360E070E01D964D935D936D935C
:102900007C9350970895CF93DF93EC0162E08D8123
:102910000E94E80B40E358EF6FEF7FEF49875A873B
:102920006B877C87DF91CF910895AF92BF92CF9252
:10293000DF92EF92FF920F931F93CF93DF93EC01FF
:10294000AF80662311F0BA2C01C0B12CA885B0E08D
:10295000AA0FBB1FAC55BF4F40E050E0BA01FD01CC
:1029600085919491FC0180818A218B1112C08A018A
:102970009B010F5F1F4F2F4F3F4FCD84DE84EF84AD
:10298000F8884C155D056E057F0538F4B901A8017E
:10299000E6CF342F252FCB0104C030E020E080E0CB
:1029A00090E0632F722FDF91CF911F910F91FF90D5
:1029B000EF90DF90CF90BF90AF900895CF92DF92CD
:1029C000EF92FF920F931F93CF93DF93CDB7DEB7B4
:1029D000C054D1400FB6F894DEBF0FBECDBF8C01FE
:1029E000F62E0E94F60AF11016C0F801C184D284B6
:1029F000E384F4849B01AC012C193D094E095F0965
:102A000069017A0130EDC31637E0D306E104F10421
:102A100010F48189B6C0F801618772878387948733
:102A20001482138212821182108261E085810E94D9
:102A3000210C6AEF70E080E090E00E94250B61E0DD
:102A4000F80185810E94E80B60E0F80185810E9411
:102A5000210C64E170E080E090E00E94250BF89486
:102A600061E0F80185810E94210C88E290E00E94DB
:102A70005C0B62E0F80185810E94E80B8AE090E03F
:102A80000E945C0B60E0C80150DF672B682B692B4C
:102A900039F061E0C80149DF672B682B692B21F40D
:102AA000F801118A78946CC06E01FFEBCF1AFEEF2B
:102AB000DF0A9E012F5F3F4F790160E0C80135DFDB
:102AC000F701608371838283938361E0C8012DDF06
:102AD000F7016483758386839783F8E0EF0EF11C1A
:102AE000EC14FD0451F778949E012F5F3F4F79015C
:102AF00020E030E0F701408151816281738184815F
:102B00009581A681B7814115510561057105B1F126
:102B10000097A105B10591F1F901F595E795F595B6
:102B2000E795F595E795E00FF11FD080DD0C48178C
:102B300059076A077B0710F0D08203C08D2D816092
:102B400080832F5F3F4FF8E0EF0EF11C28323105F4
:102B500089F6F801248130E04081818190E0840F82
:102B6000911D4281840F911D4381840F911D9927EE
:102B70002817390719F481E0818B03C0F801118A05
:102B800080E0C05CDE4F0FB6F894DEBF0FBECDBF55
:102B9000DF91CF911F910F91FF90EF90DF90CF9039
:102BA0000895CF92DF92EF92FF920F931F93CF93EE
:102BB000DF93EC01162F642F01DF882309F43BC05B
:102BC0008E818B3031F008F436C08551823038F078
:102BD00032C06A8170E080E090E074D61FC00A8144
:102BE000602F6F7770E080E090E06ED620E030E0FC
:102BF00040E853E41DD76B017C016B8170E080E0FD
:102C000090E062D69B01AC01C701B6015AD52DEC0C
:102C10003CEC4CEC5DE30CD707FD9058112379F0A8
:102C200026E636E646EE5FE303D720E030E040E0FC
:102C300052E447D504C060E070E080EC9FE7DF918C
:102C4000CF911F910F91FF90EF90DF90CF9008955B
:102C5000CF92DF92EF92FF92CF93DF93EC0160E08F
:102C6000ADDE882349F18E818B3001F128F1855149
:102C7000823010F5688170E080E090E023D620E09B
:102C800030E040E853E4D4D66B017C01698170E008
:102C900080E090E019D69B01AC01C701B60111D5C7
:102CA0002DEC3CEC4CEC5DE3C3D60AC0688170E0CF
:102CB00080E090E007D604C060E070E080EC9FE721
:102CC000DF91CF91FF90EF90DF90CF90089508951E
:102CD00089EE93E0F3D160E470E089EE93E001D2F5
:102CE00089EE93E070D2811103C081E08093E80304
:102CF0008091E8030895EF92FF920F931F93CF9373
:102D0000DF938B017A0160E470E089EE93E0E9D112
:102D1000C0E0D0E0CE15DF054CF40C0F1D1FF8010C
:102D2000608189EE93E08CD12196F4CF89EE93E017
:102D3000DF91CF911F910F91FF90EF9044C2EF92DE
:102D4000FF920F931F93CF93DF937B01EA0160E41F
:102D500070E089EE93E035D289EE93E01AD18C17BA
:102D60009D07D4F38701C8018E199F098C179D0711
:102D70003CF489EE93E015D1F80181938F01F3CFF4
:102D800081E090E0DF91CF911F910F91FF90EF9044
:102D90000895EF92FF920F931F93CF93DF931F92AB
:102DA000CDB7DEB78C0169837A0141E050E0BE0106
:102DB0006F5F7F4FA0DF42E050E0B701C801BFDF87
:102DC0000F90DF91CF911F910F91FF90EF90089599
:102DD000CF93DF9300D0CDB7DEB7AE014F5F5F4F2B
:102DE00060EED7DF2981822F90E0A0E0B0E02227BB
:102DF000382F492F5A2F8A81282BA4EAB4E450D4C3
:102E00008D5492410F900F90DF91CF910895CF9301
:102E1000DF9300D0CDB7DEB7AE014F5F5F4F65EEF9
:102E2000B8DF2981822F90E0A0E0B0E02227382F80
:102E3000492F5A2F8A81282BA4EDB0E331D488552D
:102E400092400F900F90DF91CF910895CF92DF9233
:102E5000FF920F931F93CF93DF9300D000D000D049
:102E6000CDB7DEB76C01D3DF182FF92EC601B0DF66
:102E7000082F9A838983BC01882777FD8095982F36
:102E800023D526E636E646EE5FE3D2D520E030E0F5
:102E900048E455E416D4E5D47C836B831D83FE821D
:102EA000202F3A81462F5C81612F7F2D80E090E0BA
:102EB00026960FB6F894DEBF0FBECDBFDF91CF913F
:102EC0001F910F91FF90DF90CF900895EF92FF92A6
:102ED0000F931F93CF93DF93CDB7DEB728970FB62D
:102EE000F894DEBF0FBECDBF7C018B0142E050E005
:102EF00060E171E000DF48E050E0BE016F5F7F4FAE
:102F0000C7011DDF8981F80180838B8181838D81D9
:102F100082838F81838342E050E06EE071E0C701DD
:102F2000EADE46E050E0BE016F5F7F4FC70107DF7A
:102F30008981F80184838A8185838C8186838D8150
:102F4000878381E090E028960FB6F894DEBF0FBE2D
:102F5000CDBFDF91CF911F910F91FF90EF9008951A
:102F6000CF93DF93CDB7DEB728970FB6F894DEBFC7
:102F70000FBECDBFBE016F5F7F4FA8DF8D8190E098
:102F800028960FB6F894DEBF0FBECDBFDF91CF916C
:102F900008958091190490E020911A04821B9109F0
:102FA000089520911A0480911904281750F4E22FF3
:102FB000F0E0E55EFB4F808190E02F5F20931A04E4
:102FC00008958FEF9FEF0895E0911A0480911904FE
:102FD000E81730F4F0E0E55EFB4F808190E0089563
:102FE0008FEF9FEF08950895CF92DF92EF92FF92B7
:102FF0000F931F93CF93DF937C01CB018A01209124
:10300000F503222389F0EB016B01C40ED51ECC150C
:10301000DD0561F06991D701ED91FC910190F0819E
:10302000E02DC7010995F3CF642F8FD1C801DF913F
:10303000CF911F910F91FF90EF90DF90CF90089567
:10304000CF93DF931F92CDB7DEB769832091F5034D
:103050002223D1F02091F603203240F021E030E02D
:10306000FC013383228380E090E014C08091F70359
:10307000E82FF0E0E850FC4F998190838F5F8093B8
:10308000F7038093F60304C061E0CE0101965DD1A1
:1030900081E090E00F90DF91CF910895FC011382C1
:1030A000128248EE53E060E070E04483558366830B
:1030B00077838AE692E091838083089510921A04C0
:1030C000109219041092F7031092F60381C081E068
:1030D0008093F503609318041092F7031092F6039F
:1030E0000895F5CF0F93062F21E04091F60368EF86
:1030F00073E080911804D2D01092F7031092F60377
:103100001092F5030F9108958F929F92AF92BF9204
:10311000CF92DF92EF92FF920F931F93CF93DF93A3
:10312000EC01F62ED42E48015901EE2009F1CFDF33
:103130001E2D143008F013E01150B8F0E881F98129
:1031400028E0129FB0011124A501940104C05695F6
:103150004795379527956A95D2F7CA01B90101902D
:10316000F081E02DCE010995E7CF60E0CE01BADF16
:103170004D2D413208F040E22C2D6BE174E08F2D93
:1031800045D010921A0480931904DF91CF911F91BA
:103190000F91FF90EF90DF90CF90BF90AF909F90F6
:1031A0008F900895CF92EF920F931F93C22EE12C30
:1031B00000E010E09801A8DF1F910F91EF90CF90F1
:1031C000089521E0EFCF61E08DCF89EE93E066CFE7
:1031D0001092A80481E08093A6041092A50461E0F7
:1031E00082E10E94210C61E083E10E94210CE9EB65
:1031F000F0E080818E7F808380818D7F808388E472
:103200008093B80085E48093BC000895413208F0B3
:1032100043C09091A8049111FCCF91E09093A80431
:103220002093A6042FEF20933B0410928004240FD8
:1032300020937F049093A7049091A704880F892B73
:103240008093A7048091A504813061F41092A504B5
:103250008091A7048093BB008091BC0083FDF8CFD0
:1032600085EC01C085EE8093BC008091A80481307C
:10327000E1F380918004841710F44091800421E8E8
:1032800034E0FB01D9018A2F821B841718F48D9139
:103290008193F9CF842F089580E008950F934132F0
:1032A00008F04AC09091A8049111FCCF92E090934D
:1032B000A8040093A6049FEF90933B04109280040F
:1032C00040937F04FB0161E874E0DB019A2F961BB9
:1032D000941718F491919D93F9CF1092A7049091AF
:1032E000A704880F892B8093A7048091A5048130BF
:1032F00061F41092A5048091A7048093BB00809193
:10330000BC0083FDF8CF85EC01C085EE8093BC0046
:10331000222321F08091A8048230E1F380913B04C4
:103320008F3F61F080913B04803251F080913B04EB
:10333000803341F483E007C081E005C080E003C032
:1033400082E001C084E00F910895613298F42091E9
:10335000A804243089F460935D04FC018FE594E0B7
:10336000DC012A2F281B261718F421912D93F9CF61
:1033700080E0089581E0089582E0089585ED8093CE
:10338000BC008091BC0084FDFCCF1092A80408957D
:1033900085EC8093BC001092A80408951F920F92B0
:1033A0000FB60F9211242F933F934F935F936F9318
:1033B0007F938F939F93AF93BF93EF93FF938091EE
:1033C000B900887F803609F49DC070F5883209F411
:1033D0005CC090F4803109F455C038F4882309F4B6
:1033E000F3C0883009F44EC0F2C0883109F44DC0F2
:1033F000803209F45EC0EBC0803409F469C050F437
:10340000803309F456C0883309F0E1C080933B044F
:10341000BFDFDDC0803509F44FC0883509F45DC0D9
:10342000883409F0D4C0D2C0883909F4C3C0A8F4E4
:10343000883709F467C038F4883609F463C08037E8
:1034400009F460C0C4C0883809F4B4C0803909F4F4
:103450005FC0803809F0BBC05BC0803B09F482C00C
:1034600038F4803A09F466C0883A09F47BC0AFC0EA
:10347000803C09F4A3C0883C09F4A0C0883B09F44F
:1034800086C0A5C08091A70410C09091800480914F
:103490007F04981770F5E091800481E08E0F80938F
:1034A0008004F0E0EF57FB4F80818093BB0085ECF8
:1034B00082C080933B048AC0E091800481E08E0F3B
:1034C000809380048091BB00F0E0EF57FB4F808336
:1034D0009091800480917F046AC0E091800481E033
:1034E0008E0F809380048091BB00F0E0EF57FB4F7C
:1034F00080838091A604811169C081E08093A50436
:1035000084EA5DC083E08093A80410923C04CFCF8E
:1035100080913C04803208F04DC0E0913C0481E091
:103520008E0F80933C048091BB00F0E0E35CFB4F86
:103530008083BDCF2DDF80913C04803230F4E09158
:103540003C04F0E0E35CFB4F108260913C0470E0CF
:10355000E091A104F091A2048DE394E0099510920A
:103560003C0435C084E08093A80410925E0410925D
:103570005D04E091A304F091A404099580915D0499
:10358000811105C081E080935D0410925F04E09199
:103590005E0481E08E0F80935E04F0E0E15AFB4F01
:1035A00080818093BB0090915E0480915D049817A8
:1035B00008F47DCF85E88093BC0009C085EC80933A
:1035C000BC001092A80403C010923B04D7DEFF9108
:1035D000EF91BF91AF919F918F917F916F915F918B
:1035E0004F913F912F910F900FBE0F901F90189504
:1035F000AA1BBB1B51E107C0AA1FBB1FA617B70719
:1036000010F0A61BB70B881F991F5A95A9F7809534
:103610009095BC01CD01089597FB072E16F40094F8
:1036200006D077FD08D0E4DF07FC05D03EF4909586
:1036300081959F4F0895709561957F4F0895A1E200
:103640001A2EAA1BBB1BFD010DC0AA1FBB1FEE1F1C
:10365000FF1FA217B307E407F50720F0A21BB30B67
:10366000E40BF50B661F771F881F991F1A9469F7E3
:1036700060957095809590959B01AC01BD01CF013F
:103680000895A29FB001B39FC001A39F700D811D3B
:103690001124911DB29F700D811D1124911D08955B
:1036A000F0DFA59F900DB49F900DA49F800D911DFC
:1036B00011240895EE0FFF1F0590F491E02D099459
:1036C0005058BB27AA270ED075C166D130F06BD1F8
:1036D00020F031F49F3F11F41EF45BC10EF4E0952D
:1036E000E7FB51C1E92F77D180F3BA17620773075F
:1036F0008407950718F071F49EF58FC10EF4E095DC
:103700000B2EBA2FA02D0B01B90190010C01CA019B
:10371000A0011124FF27591B99F0593F50F4503E46
:1037200068F11A16F040A22F232F342F4427585F38
:10373000F3CF469537952795A795F0405395C9F750
:103740007EF41F16BA0B620B730B840BBAF0915008
:10375000A1F0FF0FBB1F661F771F881FC2F70EC0A7
:10376000BA0F621F731F841F48F48795779567957A
:10377000B795F7959E3F08F0B3CF9395880F08F063
:103780009927EE0F979587950895D9D008F481E091
:1037900008950CD00FC107D140F0FED030F021F4D5
:1037A0005F3F19F0F0C0511139C1F3C014D198F343
:1037B0009923C9F35523B1F3951B550BBB27AA27B2
:1037C00062177307840738F09F5F5F4F220F331F24
:1037D000441FAA1FA9F333D00E2E3AF0E0E830D0F0
:1037E00091505040E695001CCAF729D0FE2F27D0F3
:1037F000660F771F881FBB1F261737074807AB07C1
:10380000B0E809F0BB0B802DBF01FF2793585F4F35
:103810002AF09E3F510568F0B6C000C15F3FECF34F
:10382000983EDCF3869577956795B795F7959F5FFA
:10383000C9F7880F911D9695879597F90895E1E04E
:10384000660F771F881FBB1F621773078407BA07AD
:1038500020F0621B730B840BBA0BEE1F88F7E09508
:10386000089504D06894B111D9C00895BCD088F0EF
:103870009F5790F0B92F9927B751A0F0D1F0660F5C
:10388000771F881F991F1AF0BA95C9F712C0B13077
:1038900081F0C3D0B1E00895C0C0672F782F88278A
:1038A000B85F39F0B93FCCF3869577956795B395B6
:1038B000D9F73EF490958095709561957F4F8F4F25
:1038C0009F4F0895E89409C097FB3EF4909580952A
:1038D000709561957F4F8F4F9F4F9923A9F0F92FD6
:1038E00096E9BB279395F695879577956795B79554
:1038F000F111F8CFFAF4BB0F11F460FF1BC06F5F3A
:103900007F4F8F4F9F4F16C0882311F096E911C04B
:10391000772321F09EE8872F762F05C0662371F06C
:1039200096E8862F70E060E02AF09A95660F771F80
:10393000881FDAF7880F9695879597F90895990F5C
:103940000008550FAA0BE0E8FEEF16161706E80769
:10395000F907C0F012161306E407F50798F0621B8A
:10396000730B840B950B39F40A2661F0232B242B5F
:10397000252B21F408950A2609F4A140A6958FEF7E
:10398000811D811D089597F99F6780E870E060E0D0
:1039900008959FEF80EC089500240A9416161706E8
:1039A00018060906089500240A9412161306140630
:1039B00005060895092E0394000C11F4882352F093
:1039C000BB0F40F4BF2B11F460FF04C06F5F7F4F4B
:1039D0008F4F9F4F089557FD9058440F551F59F032
:1039E0005F3F71F04795880F97FB991F61F09F3FEC
:1039F00079F087950895121613061406551FF2CF15
:103A00004695F1DF08C0161617061806991FF1CF64
:103A100086957105610508940895E894BB2766278B
:103A20007727CB0197F908958ADF08F48FEF08957F
:103A30000BD0C0CFB1DF28F0B6DF18F0952309F026
:103A4000A2CFA7CF1124EACFC6DFA0F3959FD1F371
:103A5000950F50E0551F629FF001729FBB27F00D3C
:103A6000B11D639FAA27F00DB11DAA1F649F662791
:103A7000B00DA11D661F829F2227B00DA11D621FE0
:103A8000739FB00DA11D621F839FA00D611D221F9A
:103A9000749F3327A00D611D231F849F600D211D7E
:103AA000822F762F6A2F11249F5750408AF0E1F021
:103AB00088234AF0EE0FFF1FBB1F661F771F881F6A
:103AC00091505040A9F79E3F510570F05CCFA6CFB2
:103AD0005F3FECF3983EDCF3869577956795B79555
:103AE000F795E7959F5FC1F7FE2B880F911D96957F
:103AF000879597F9089523DF880B990B0895F8941B
:023B0000FFCFF5
:103B02000000A90480001700011F0A1F0A01FCC956
:103B1200FA0F4F70656E456E657267794D6F6E690B
:103B2200746F722E6F726700656D6F6E5448202D30
:103B3200204669726D7761726520560052464D3695
:103B420039435720496E69743E20004E6F64653ACE
:103B5200200020467265713A20003433334D687A72
:103B620000204E6574776F726B3A20004E6F2044CE
:103B72004854323200446574656374656420444875
:103B820054323200466F756E6420534937303231F9
:103B92003A200044697361626C696E67204448543C
:103BA20032320053493730323120743A20005349BF
:103BB2003730323120683A20004E6F205349373077
:103BC20032315F737461747573004E6F20445331E8
:103BD2003842323000466F756E64200044533138EB
:103BE20042323020262044485432322F5349373053
:103BF200323120666F756E642C20617373756D654A
:103C02002044533138423230206973206578740081
:103C120074656D703A002C0074656D705F65783A5A
:103C22000068756D69646974793A006261747465DB
:103C320072793A200070756C73653A0000000000DA
:103C4200A90612082D064606380688060D0A006ED9
:103C5200616E00696E66006F7666002E002B565A02
:103C62005E00BC007701000000002018F417C9179D
:063C7200D117E417F3175F
:00000001FF
